{
  "contractName": "Ronda",
  "abi": [
    {
      "inputs": [
        {
          "name": "_admin",
          "type": "address"
        }
      ],
      "payable": false,
      "stateMutability": "nonpayable",
      "type": "constructor"
    },
    {
      "constant": true,
      "inputs": [],
      "name": "isAdmin",
      "outputs": [
        {
          "name": "",
          "type": "bool"
        }
      ],
      "payable": false,
      "stateMutability": "view",
      "type": "function"
    },
    {
      "constant": false,
      "inputs": [
        {
          "name": "_participantAddr",
          "type": "address"
        }
      ],
      "name": "addParticipant",
      "outputs": [],
      "payable": false,
      "stateMutability": "nonpayable",
      "type": "function"
    },
    {
      "constant": false,
      "inputs": [],
      "name": "acceptInvitationToParticipate",
      "outputs": [],
      "payable": false,
      "stateMutability": "nonpayable",
      "type": "function"
    },
    {
      "constant": false,
      "inputs": [],
      "name": "rejectInvitationToParticipate",
      "outputs": [],
      "payable": false,
      "stateMutability": "nonpayable",
      "type": "function"
    },
    {
      "constant": false,
      "inputs": [],
      "name": "start",
      "outputs": [],
      "payable": false,
      "stateMutability": "nonpayable",
      "type": "function"
    },
    {
      "constant": false,
      "inputs": [
        {
          "name": "_participant",
          "type": "address"
        }
      ],
      "name": "acceptInvitationByAdmin",
      "outputs": [],
      "payable": false,
      "stateMutability": "nonpayable",
      "type": "function"
    },
    {
      "constant": false,
      "inputs": [
        {
          "name": "_participant",
          "type": "address"
        }
      ],
      "name": "rejectInvitationByAdmin",
      "outputs": [],
      "payable": false,
      "stateMutability": "nonpayable",
      "type": "function"
    }
  ],
  "bytecode": "0x608060405234801561001057600080fd5b506040516020806113828339810180604052602081101561003057600080fd5b8101908080519060200190929190505050806000806101000a81548173ffffffffffffffffffffffffffffffffffffffff021916908373ffffffffffffffffffffffffffffffffffffffff160217905550506112f1806100916000396000f3fe608060405234801561001057600080fd5b506004361061007d5760003560e01c8063b6db75a01161005b578063b6db75a014610114578063be9a655514610136578063c39e143f14610140578063dfafe10f1461014a5761007d565b8063596979c1146100825780637699f743146100c6578063a008bbca1461010a575b600080fd5b6100c46004803603602081101561009857600080fd5b81019080803573ffffffffffffffffffffffffffffffffffffffff16906020019092919050505061018e565b005b610108600480360360208110156100dc57600080fd5b81019080803573ffffffffffffffffffffffffffffffffffffffff16906020019092919050505061043c565b005b610112610765565b005b61011c610af9565b604051808215151515815260200191505060405180910390f35b61013e610b50565b005b610148610c2e565b005b61018c6004803603602081101561016057600080fd5b81019080803573ffffffffffffffffffffffffffffffffffffffff169060200190929190505050610fc1565b005b600260008273ffffffffffffffffffffffffffffffffffffffff1673ffffffffffffffffffffffffffffffffffffffff16815260200190815260200160002060040160149054906101000a900460ff16610250576040517f08c379a000000000000000000000000000000000000000000000000000000000815260040180806020018281038252601e8152602001807f546865207061727469636970616e7420646f65736e277420657869737473000081525060200191505060405180910390fd5b6000600281111561025d57fe5b600260008373ffffffffffffffffffffffffffffffffffffffff1673ffffffffffffffffffffffffffffffffffffffff16815260200190815260200160002060020160009054906101000a900460ff1660028111156102b857fe5b1461030e576040517f08c379a00000000000000000000000000000000000000000000000000000000081526004018080602001828103825260258152602001806112256025913960400191505060405180910390fd5b60028060008373ffffffffffffffffffffffffffffffffffffffff1673ffffffffffffffffffffffffffffffffffffffff16815260200190815260200160002060020160006101000a81548160ff0219169083600281111561036c57fe5b021790555043600260008373ffffffffffffffffffffffffffffffffffffffff1673ffffffffffffffffffffffffffffffffffffffff1681526020019081526020016000206001018190555033600260008373ffffffffffffffffffffffffffffffffffffffff1673ffffffffffffffffffffffffffffffffffffffff16815260200190815260200160002060040160006101000a81548173ffffffffffffffffffffffffffffffffffffffff021916908373ffffffffffffffffffffffffffffffffffffffff16021790555050565b610444610af9565b6104b6576040517f08c379a000000000000000000000000000000000000000000000000000000000815260040180806020018281038252600d8152602001807f4973206e6f742061646d696e210000000000000000000000000000000000000081525060200191505060405180910390fd5b600260008273ffffffffffffffffffffffffffffffffffffffff1673ffffffffffffffffffffffffffffffffffffffff16815260200190815260200160002060040160149054906101000a900460ff16610578576040517f08c379a000000000000000000000000000000000000000000000000000000000815260040180806020018281038252601e8152602001807f546865207061727469636970616e7420646f65736e277420657869737473000081525060200191505060405180910390fd5b6000600281111561058557fe5b600260008373ffffffffffffffffffffffffffffffffffffffff1673ffffffffffffffffffffffffffffffffffffffff16815260200190815260200160002060020160009054906101000a900460ff1660028111156105e057fe5b14610636576040517f08c379a00000000000000000000000000000000000000000000000000000000081526004018080602001828103825260258152602001806112256025913960400191505060405180910390fd5b6001600260008373ffffffffffffffffffffffffffffffffffffffff1673ffffffffffffffffffffffffffffffffffffffff16815260200190815260200160002060020160006101000a81548160ff0219169083600281111561069557fe5b021790555043600260008373ffffffffffffffffffffffffffffffffffffffff1673ffffffffffffffffffffffffffffffffffffffff1681526020019081526020016000206001018190555033600260008373ffffffffffffffffffffffffffffffffffffffff1673ffffffffffffffffffffffffffffffffffffffff16815260200190815260200160002060040160006101000a81548173ffffffffffffffffffffffffffffffffffffffff021916908373ffffffffffffffffffffffffffffffffffffffff16021790555050565b600260003373ffffffffffffffffffffffffffffffffffffffff1673ffffffffffffffffffffffffffffffffffffffff16815260200190815260200160002060040160149054906101000a900460ff16610827576040517f08c379a000000000000000000000000000000000000000000000000000000000815260040180806020018281038252601e8152602001807f546865207061727469636970616e7420646f65736e277420657869737473000081525060200191505060405180910390fd5b3373ffffffffffffffffffffffffffffffffffffffff16600260003373ffffffffffffffffffffffffffffffffffffffff1673ffffffffffffffffffffffffffffffffffffffff16815260200190815260200160002060000160009054906101000a900473ffffffffffffffffffffffffffffffffffffffff1673ffffffffffffffffffffffffffffffffffffffff161461090d576040517f08c379a000000000000000000000000000000000000000000000000000000000815260040180806020018281038252602b815260200180611279602b913960400191505060405180910390fd5b6000600281111561091a57fe5b600260003373ffffffffffffffffffffffffffffffffffffffff1673ffffffffffffffffffffffffffffffffffffffff16815260200190815260200160002060020160009054906101000a900460ff16600281111561097557fe5b146109cb576040517f08c379a00000000000000000000000000000000000000000000000000000000081526004018080602001828103825260258152602001806112256025913960400191505060405180910390fd5b6001600260003373ffffffffffffffffffffffffffffffffffffffff1673ffffffffffffffffffffffffffffffffffffffff16815260200190815260200160002060020160006101000a81548160ff02191690836002811115610a2a57fe5b021790555043600260003373ffffffffffffffffffffffffffffffffffffffff1673ffffffffffffffffffffffffffffffffffffffff1681526020019081526020016000206001018190555033600260003373ffffffffffffffffffffffffffffffffffffffff1673ffffffffffffffffffffffffffffffffffffffff16815260200190815260200160002060040160006101000a81548173ffffffffffffffffffffffffffffffffffffffff021916908373ffffffffffffffffffffffffffffffffffffffff160217905550565b60008060009054906101000a900473ffffffffffffffffffffffffffffffffffffffff1673ffffffffffffffffffffffffffffffffffffffff163373ffffffffffffffffffffffffffffffffffffffff1614905090565b610b58610af9565b610bca576040517f08c379a000000000000000000000000000000000000000000000000000000000815260040180806020018281038252600d8152602001807f4973206e6f742061646d696e210000000000000000000000000000000000000081525060200191505060405180910390fd5b600060015414610c25576040517f08c379a00000000000000000000000000000000000000000000000000000000081526004018080602001828103825260228152602001806112a46022913960400191505060405180910390fd5b43600181905550565b600260003373ffffffffffffffffffffffffffffffffffffffff1673ffffffffffffffffffffffffffffffffffffffff16815260200190815260200160002060040160149054906101000a900460ff16610cf0576040517f08c379a000000000000000000000000000000000000000000000000000000000815260040180806020018281038252601e8152602001807f546865207061727469636970616e7420646f65736e277420657869737473000081525060200191505060405180910390fd5b3373ffffffffffffffffffffffffffffffffffffffff16600260003373ffffffffffffffffffffffffffffffffffffffff1673ffffffffffffffffffffffffffffffffffffffff16815260200190815260200160002060000160009054906101000a900473ffffffffffffffffffffffffffffffffffffffff1673ffffffffffffffffffffffffffffffffffffffff1614610dd6576040517f08c379a000000000000000000000000000000000000000000000000000000000815260040180806020018281038252602b815260200180611279602b913960400191505060405180910390fd5b60006002811115610de357fe5b600260003373ffffffffffffffffffffffffffffffffffffffff1673ffffffffffffffffffffffffffffffffffffffff16815260200190815260200160002060020160009054906101000a900460ff166002811115610e3e57fe5b14610e94576040517f08c379a00000000000000000000000000000000000000000000000000000000081526004018080602001828103825260258152602001806112256025913960400191505060405180910390fd5b60028060003373ffffffffffffffffffffffffffffffffffffffff1673ffffffffffffffffffffffffffffffffffffffff16815260200190815260200160002060020160006101000a81548160ff02191690836002811115610ef257fe5b021790555043600260003373ffffffffffffffffffffffffffffffffffffffff1673ffffffffffffffffffffffffffffffffffffffff1681526020019081526020016000206001018190555033600260003373ffffffffffffffffffffffffffffffffffffffff1673ffffffffffffffffffffffffffffffffffffffff16815260200190815260200160002060040160006101000a81548173ffffffffffffffffffffffffffffffffffffffff021916908373ffffffffffffffffffffffffffffffffffffffff160217905550565b610fc9610af9565b61103b576040517f08c379a000000000000000000000000000000000000000000000000000000000815260040180806020018281038252600d8152602001807f4973206e6f742061646d696e210000000000000000000000000000000000000081525060200191505060405180910390fd5b600260008273ffffffffffffffffffffffffffffffffffffffff1673ffffffffffffffffffffffffffffffffffffffff16815260200190815260200160002060040160149054906101000a900460ff16156110e1576040517f08c379a000000000000000000000000000000000000000000000000000000000815260040180806020018281038252602f81526020018061124a602f913960400191505060405180910390fd5b80600260008373ffffffffffffffffffffffffffffffffffffffff1673ffffffffffffffffffffffffffffffffffffffff16815260200190815260200160002060000160006101000a81548173ffffffffffffffffffffffffffffffffffffffff021916908373ffffffffffffffffffffffffffffffffffffffff1602179055506000600260008373ffffffffffffffffffffffffffffffffffffffff1673ffffffffffffffffffffffffffffffffffffffff16815260200190815260200160002060020160006101000a81548160ff021916908360028111156111c157fe5b02179055506001600260008373ffffffffffffffffffffffffffffffffffffffff1673ffffffffffffffffffffffffffffffffffffffff16815260200190815260200160002060040160146101000a81548160ff0219169083151502179055505056fe546865207061727469636970616e74207374617465206d7573742062652070656e64696e67546865207061727469636970616e7420697320616c72656164792070726573656e74206f6e2074686520726f6e64614f6e6c7920746865207061727469636970616e742063616e2063616c6c20746869732066756e6374696f6e54686520726f6e64612063616e277420626520616c72656164792073746172746564a165627a7a723058200202e62fcb68394bd6d117955aeba3f75b48cb35d04471613180f3b461b0c9c10029",
  "source": "pragma solidity >=0.4.21;\n\ncontract Ronda {\n    \n    address admin; \t// ronda admin\n    uint startDate;\t\t// start date of the ronda\n\n    enum ParticipantState {\n        PENDING,\n        ACCEPTED,\n        REJECTED\n    }\n\n    struct RondaParticipant {\n        address participant;\t// address of the ronda participant\n        uint acceptedMoment; \t// block number of the moment the participant accepted to be part of the ronda\n        ParticipantState state;\n        uint number;\t\t\t// the number/position of the participant in the Ronda. uint or array?\n        address madeBy;         // who made the action of reject or accept?\n        bool exists;\n    }\n\n    // stores all the participants\n    mapping(address => RondaParticipant) participants;\n\n    function isAdmin() public view returns (bool) {\n        return msg.sender == admin;\n    }\n\n    modifier onlyAdmin() {\n        require(isAdmin(), \"Is not admin!\");\n        _;\n    }\n\n    constructor(address _admin) public {\n        admin = _admin;\n    }\n\n    function addParticipant(address _participantAddr) public onlyAdmin()  {\n        require(!participants[_participantAddr].exists, \"The participant is already present on the ronda\");\n        \n        participants[_participantAddr].participant = _participantAddr;\n        participants[_participantAddr].state = ParticipantState.PENDING;\n        participants[_participantAddr].exists = true;\n    }\n\n    function acceptInvitationToParticipate() public {\n        require(participants[msg.sender].exists, \"The participant doesn't exists\");\n        require(participants[msg.sender].participant == msg.sender, \"Only the participant can call this function\");\n        require(participants[msg.sender].state == ParticipantState.PENDING, \"The participant state must be pending\");\n\n        participants[msg.sender].state = ParticipantState.ACCEPTED;\n        participants[msg.sender].acceptedMoment = block.number;\n        participants[msg.sender].madeBy = msg.sender;\n    }\n\n    function rejectInvitationToParticipate() public {\n        require(participants[msg.sender].exists, \"The participant doesn't exists\");\n        require(participants[msg.sender].participant == msg.sender, \"Only the participant can call this function\");\n        require(participants[msg.sender].state == ParticipantState.PENDING, \"The participant state must be pending\");\n\n        participants[msg.sender].state = ParticipantState.REJECTED;\n        participants[msg.sender].acceptedMoment = block.number;\n        participants[msg.sender].madeBy = msg.sender;\n    }\n\n    function start() public onlyAdmin() {\n        require(startDate == 0, \"The ronda can't be already started\");\n\n        startDate = block.number;\n    }\n\n    function acceptInvitationByAdmin(address _participant) public onlyAdmin() {\n        require(participants[_participant].exists, \"The participant doesn't exists\");\n        require(participants[_participant].state == ParticipantState.PENDING, \"The participant state must be pending\");\n\n        participants[_participant].state = ParticipantState.ACCEPTED;\n        participants[_participant].acceptedMoment = block.number;\n        participants[_participant].madeBy = msg.sender;\n    }\n\n    function rejectInvitationByAdmin(address _participant) public {\n        require(participants[_participant].exists, \"The participant doesn't exists\");\n        require(participants[_participant].state == ParticipantState.PENDING, \"The participant state must be pending\");\n\n        participants[_participant].state = ParticipantState.REJECTED;\n        participants[_participant].acceptedMoment = block.number;\n        participants[_participant].madeBy = msg.sender;\n    }\n\n}\n",
  "sourcePath": "/Users/pixel/Development/projects/didi/didi_sc/contracts/Ronda.sol",
  "compiler": {
    "name": "solc",
    "version": "0.5.8+commit.23d335f2.Emscripten.clang"
  },
  "schemaVersion": "3.0.11",
  "updatedAt": "2019-11-25T12:57:58.862Z",
  "devdoc": {
    "methods": {}
  },
  "userdoc": {
    "methods": {}
  }
}