{
  "contractName": "Ronda",
  "abi": [
    {
      "inputs": [
        {
          "internalType": "address",
          "name": "_admin",
          "type": "address"
        },
        {
          "internalType": "address",
          "name": "_registry",
          "type": "address"
        },
        {
          "internalType": "string",
          "name": "_id",
          "type": "string"
        }
      ],
      "payable": false,
      "stateMutability": "nonpayable",
      "type": "constructor"
    },
    {
      "anonymous": false,
      "inputs": [
        {
          "indexed": true,
          "internalType": "address",
          "name": "_admin",
          "type": "address"
        },
        {
          "indexed": true,
          "internalType": "address",
          "name": "_participant",
          "type": "address"
        },
        {
          "indexed": false,
          "internalType": "uint256",
          "name": "_blockNumber",
          "type": "uint256"
        }
      ],
      "name": "AcceptInvitationByAdmin",
      "type": "event"
    },
    {
      "anonymous": false,
      "inputs": [
        {
          "indexed": true,
          "internalType": "address",
          "name": "_admin",
          "type": "address"
        },
        {
          "indexed": true,
          "internalType": "address",
          "name": "_participant",
          "type": "address"
        }
      ],
      "name": "AcceptParticipantToRonda",
      "type": "event"
    },
    {
      "anonymous": false,
      "inputs": [
        {
          "indexed": true,
          "internalType": "address",
          "name": "_admin",
          "type": "address"
        },
        {
          "indexed": true,
          "internalType": "address",
          "name": "_participant",
          "type": "address"
        }
      ],
      "name": "AddParticipantToRonda",
      "type": "event"
    },
    {
      "anonymous": false,
      "inputs": [
        {
          "indexed": true,
          "internalType": "address",
          "name": "_admin",
          "type": "address"
        },
        {
          "indexed": false,
          "internalType": "address[]",
          "name": "_participants",
          "type": "address[]"
        }
      ],
      "name": "AddParticipantsToRonda",
      "type": "event"
    },
    {
      "anonymous": false,
      "inputs": [
        {
          "indexed": true,
          "internalType": "uint256",
          "name": "number",
          "type": "uint256"
        },
        {
          "indexed": true,
          "internalType": "uint256",
          "name": "timeMade",
          "type": "uint256"
        }
      ],
      "name": "DeletedPayment",
      "type": "event"
    },
    {
      "anonymous": false,
      "inputs": [
        {
          "indexed": true,
          "internalType": "address",
          "name": "_participant",
          "type": "address"
        },
        {
          "indexed": true,
          "internalType": "address",
          "name": "_confirmedBy",
          "type": "address"
        },
        {
          "indexed": false,
          "internalType": "uint32",
          "name": "_amount",
          "type": "uint32"
        },
        {
          "indexed": false,
          "internalType": "uint256",
          "name": "_blockNumber",
          "type": "uint256"
        }
      ],
      "name": "MakeCharge",
      "type": "event"
    },
    {
      "anonymous": false,
      "inputs": [
        {
          "indexed": true,
          "internalType": "address",
          "name": "_admin",
          "type": "address"
        },
        {
          "indexed": true,
          "internalType": "address",
          "name": "_participant",
          "type": "address"
        },
        {
          "indexed": false,
          "internalType": "uint32",
          "name": "_amount",
          "type": "uint32"
        },
        {
          "indexed": false,
          "internalType": "uint256",
          "name": "_blockNumber",
          "type": "uint256"
        }
      ],
      "name": "MakePayment",
      "type": "event"
    },
    {
      "anonymous": false,
      "inputs": [
        {
          "indexed": true,
          "internalType": "address",
          "name": "_admin",
          "type": "address"
        },
        {
          "indexed": true,
          "internalType": "address",
          "name": "_participant",
          "type": "address"
        },
        {
          "indexed": false,
          "internalType": "uint256",
          "name": "_blockNumber",
          "type": "uint256"
        }
      ],
      "name": "RejectInvitationByAdmin",
      "type": "event"
    },
    {
      "anonymous": false,
      "inputs": [
        {
          "indexed": true,
          "internalType": "address",
          "name": "_admin",
          "type": "address"
        },
        {
          "indexed": true,
          "internalType": "address",
          "name": "_participant",
          "type": "address"
        }
      ],
      "name": "RejectParticipantToRonda",
      "type": "event"
    },
    {
      "anonymous": false,
      "inputs": [
        {
          "indexed": true,
          "internalType": "address",
          "name": "admin",
          "type": "address"
        },
        {
          "indexed": true,
          "internalType": "address",
          "name": "_oldParticipant",
          "type": "address"
        },
        {
          "indexed": true,
          "internalType": "address",
          "name": "_newParticipant",
          "type": "address"
        }
      ],
      "name": "ReplaceParticipant",
      "type": "event"
    },
    {
      "anonymous": false,
      "inputs": [
        {
          "indexed": true,
          "internalType": "address",
          "name": "_admin",
          "type": "address"
        },
        {
          "indexed": false,
          "internalType": "uint256",
          "name": "_blockNumber",
          "type": "uint256"
        }
      ],
      "name": "RondaStarted",
      "type": "event"
    },
    {
      "constant": true,
      "inputs": [],
      "name": "isAdmin",
      "outputs": [
        {
          "internalType": "bool",
          "name": "",
          "type": "bool"
        }
      ],
      "payable": false,
      "stateMutability": "view",
      "type": "function"
    },
    {
      "constant": true,
      "inputs": [
        {
          "internalType": "address",
          "name": "_addr",
          "type": "address"
        }
      ],
      "name": "participantExists",
      "outputs": [
        {
          "internalType": "bool",
          "name": "",
          "type": "bool"
        }
      ],
      "payable": false,
      "stateMutability": "view",
      "type": "function"
    },
    {
      "constant": true,
      "inputs": [
        {
          "internalType": "address",
          "name": "_addr",
          "type": "address"
        }
      ],
      "name": "participantStateIsPending",
      "outputs": [
        {
          "internalType": "bool",
          "name": "",
          "type": "bool"
        }
      ],
      "payable": false,
      "stateMutability": "view",
      "type": "function"
    },
    {
      "constant": true,
      "inputs": [
        {
          "internalType": "address",
          "name": "_addr",
          "type": "address"
        }
      ],
      "name": "getParticipant",
      "outputs": [
        {
          "internalType": "address",
          "name": "",
          "type": "address"
        },
        {
          "internalType": "uint256",
          "name": "",
          "type": "uint256"
        },
        {
          "internalType": "enum Ronda.ParticipantState",
          "name": "",
          "type": "uint8"
        },
        {
          "internalType": "address",
          "name": "",
          "type": "address"
        },
        {
          "internalType": "bool",
          "name": "",
          "type": "bool"
        }
      ],
      "payable": false,
      "stateMutability": "view",
      "type": "function"
    },
    {
      "constant": false,
      "inputs": [
        {
          "internalType": "address[]",
          "name": "_addresses",
          "type": "address[]"
        }
      ],
      "name": "addParticipants",
      "outputs": [],
      "payable": false,
      "stateMutability": "nonpayable",
      "type": "function"
    },
    {
      "constant": false,
      "inputs": [
        {
          "internalType": "address",
          "name": "_participantAddr",
          "type": "address"
        }
      ],
      "name": "addParticipant",
      "outputs": [],
      "payable": false,
      "stateMutability": "nonpayable",
      "type": "function"
    },
    {
      "constant": false,
      "inputs": [],
      "name": "acceptInvitationToParticipate",
      "outputs": [],
      "payable": false,
      "stateMutability": "nonpayable",
      "type": "function"
    },
    {
      "constant": false,
      "inputs": [],
      "name": "rejectInvitationToParticipate",
      "outputs": [],
      "payable": false,
      "stateMutability": "nonpayable",
      "type": "function"
    },
    {
      "constant": false,
      "inputs": [],
      "name": "start",
      "outputs": [],
      "payable": false,
      "stateMutability": "nonpayable",
      "type": "function"
    },
    {
      "constant": false,
      "inputs": [
        {
          "internalType": "address",
          "name": "_participant",
          "type": "address"
        }
      ],
      "name": "acceptInvitationByAdmin",
      "outputs": [],
      "payable": false,
      "stateMutability": "nonpayable",
      "type": "function"
    },
    {
      "constant": false,
      "inputs": [
        {
          "internalType": "address",
          "name": "_participant",
          "type": "address"
        }
      ],
      "name": "rejectInvitationByAdmin",
      "outputs": [],
      "payable": false,
      "stateMutability": "nonpayable",
      "type": "function"
    },
    {
      "constant": false,
      "inputs": [
        {
          "internalType": "address",
          "name": "_oldParticipant",
          "type": "address"
        },
        {
          "internalType": "address",
          "name": "_newParticipant",
          "type": "address"
        }
      ],
      "name": "replaceParticipant",
      "outputs": [],
      "payable": false,
      "stateMutability": "nonpayable",
      "type": "function"
    },
    {
      "constant": false,
      "inputs": [
        {
          "internalType": "uint32",
          "name": "amount",
          "type": "uint32"
        }
      ],
      "name": "makeCharge",
      "outputs": [],
      "payable": false,
      "stateMutability": "nonpayable",
      "type": "function"
    },
    {
      "constant": false,
      "inputs": [
        {
          "internalType": "uint32",
          "name": "amount",
          "type": "uint32"
        }
      ],
      "name": "makePayment",
      "outputs": [],
      "payable": false,
      "stateMutability": "nonpayable",
      "type": "function"
    },
    {
      "constant": true,
      "inputs": [
        {
          "internalType": "uint256",
          "name": "_number",
          "type": "uint256"
        }
      ],
      "name": "getPayment",
      "outputs": [
        {
          "internalType": "address",
          "name": "",
          "type": "address"
        },
        {
          "internalType": "uint256",
          "name": "",
          "type": "uint256"
        },
        {
          "internalType": "uint32",
          "name": "",
          "type": "uint32"
        },
        {
          "internalType": "bool",
          "name": "",
          "type": "bool"
        },
        {
          "internalType": "uint256",
          "name": "",
          "type": "uint256"
        }
      ],
      "payable": false,
      "stateMutability": "view",
      "type": "function"
    },
    {
      "constant": true,
      "inputs": [
        {
          "internalType": "uint256",
          "name": "_number",
          "type": "uint256"
        }
      ],
      "name": "getCharge",
      "outputs": [
        {
          "internalType": "address",
          "name": "",
          "type": "address"
        },
        {
          "internalType": "address",
          "name": "",
          "type": "address"
        },
        {
          "internalType": "uint256",
          "name": "",
          "type": "uint256"
        },
        {
          "internalType": "uint256",
          "name": "",
          "type": "uint256"
        }
      ],
      "payable": false,
      "stateMutability": "view",
      "type": "function"
    },
    {
      "constant": false,
      "inputs": [
        {
          "internalType": "uint256",
          "name": "_number",
          "type": "uint256"
        }
      ],
      "name": "deletePayment",
      "outputs": [],
      "payable": false,
      "stateMutability": "nonpayable",
      "type": "function"
    },
    {
      "constant": true,
      "inputs": [],
      "name": "getQuantityOfPayments",
      "outputs": [
        {
          "internalType": "uint256",
          "name": "",
          "type": "uint256"
        }
      ],
      "payable": false,
      "stateMutability": "view",
      "type": "function"
    },
    {
      "constant": true,
      "inputs": [],
      "name": "getQuantityOfCharges",
      "outputs": [
        {
          "internalType": "uint256",
          "name": "",
          "type": "uint256"
        }
      ],
      "payable": false,
      "stateMutability": "view",
      "type": "function"
    },
    {
      "constant": false,
      "inputs": [
        {
          "internalType": "address",
          "name": "_newAdmin",
          "type": "address"
        }
      ],
      "name": "changeAdmin",
      "outputs": [],
      "payable": false,
      "stateMutability": "nonpayable",
      "type": "function"
    }
  ],
  "bytecode": "0x6080604052600060045560006005553480156200001b57600080fd5b506040516200568138038062005681833981810160405260608110156200004157600080fd5b810190808051906020019092919080519060200190929190805160405193929190846401000000008211156200007657600080fd5b838201915060208201858111156200008d57600080fd5b8251866001820283011164010000000082111715620000ab57600080fd5b8083526020830192505050908051906020019080838360005b83811015620000e1578082015181840152602081019050620000c4565b50505050905090810190601f1680156200010f5780820380516001836020036101000a031916815260200191505b50604052505050826000806101000a81548173ffffffffffffffffffffffffffffffffffffffff021916908373ffffffffffffffffffffffffffffffffffffffff16021790555081600260006101000a81548173ffffffffffffffffffffffffffffffffffffffff021916908373ffffffffffffffffffffffffffffffffffffffff1602179055508060019080519060200190620001af929190620001b9565b5050505062000268565b828054600181600116156101000203166002900490600052602060002090601f016020900481019282601f10620001fc57805160ff19168380011785556200022d565b828001600101855582156200022d579182015b828111156200022c5782518255916020019190600101906200020f565b5b5090506200023c919062000240565b5090565b6200026591905b808211156200026157600081600090555060010162000247565b5090565b90565b61540980620002786000396000f3fe608060405234801561001057600080fd5b506004361061012c5760003560e01c80639723c97a116100ad578063be9a655511610071578063be9a6555146105f7578063c194c7ff14610601578063c39e143f1461065d578063dfafe10f14610667578063f48a4839146106ab5761012c565b80639723c97a146104d0578063a008bbca146104ee578063b6db75a0146104f8578063b82edd5c1461051a578063b99cc3b1146105c95761012c565b8063701ff9ec116100f4578063701ff9ec146103185780637143059f146103365780637699f743146104145780638a79c594146104585780638f2839701461048c5761012c565b80633280a8361461013157806348177488146101cb578063596979c1146101ff5780635b4ccc9d1461024357806368014cec146102bc575b600080fd5b61015d6004803603602081101561014757600080fd5b810190808035906020019092919050505061070f565b604051808673ffffffffffffffffffffffffffffffffffffffff1673ffffffffffffffffffffffffffffffffffffffff1681526020018581526020018463ffffffff1663ffffffff168152602001831515151581526020018281526020019550505050505060405180910390f35b6101fd600480360360208110156101e157600080fd5b81019080803563ffffffff1690602001909291905050506108ea565b005b6102416004803603602081101561021557600080fd5b81019080803573ffffffffffffffffffffffffffffffffffffffff169060200190929190505050610e48565b005b6102ba6004803603602081101561025957600080fd5b810190808035906020019064010000000081111561027657600080fd5b82018360208201111561028857600080fd5b803590602001918460208302840111640100000000831117156102aa57600080fd5b909192939192939050505061145f565b005b6102fe600480360360208110156102d257600080fd5b81019080803573ffffffffffffffffffffffffffffffffffffffff169060200190929190505050611b16565b604051808215151515815260200191505060405180910390f35b610320611b6f565b6040518082815260200191505060405180910390f35b6103786004803603602081101561034c57600080fd5b81019080803573ffffffffffffffffffffffffffffffffffffffff169060200190929190505050611bf3565b604051808673ffffffffffffffffffffffffffffffffffffffff1673ffffffffffffffffffffffffffffffffffffffff1681526020018581526020018460028111156103c057fe5b60ff1681526020018373ffffffffffffffffffffffffffffffffffffffff1673ffffffffffffffffffffffffffffffffffffffff168152602001821515151581526020019550505050505060405180910390f35b6104566004803603602081101561042a57600080fd5b81019080803573ffffffffffffffffffffffffffffffffffffffff169060200190929190505050611e31565b005b61048a6004803603602081101561046e57600080fd5b81019080803563ffffffff169060200190929190505050612448565b005b6104ce600480360360208110156104a257600080fd5b81019080803573ffffffffffffffffffffffffffffffffffffffff16906020019092919050505061298d565b005b6104d8612d57565b6040518082815260200191505060405180910390f35b6104f6612ddb565b005b61050061336a565b604051808215151515815260200191505060405180910390f35b6105466004803603602081101561053057600080fd5b81019080803590602001909291905050506133c1565b604051808573ffffffffffffffffffffffffffffffffffffffff1673ffffffffffffffffffffffffffffffffffffffff1681526020018473ffffffffffffffffffffffffffffffffffffffff1673ffffffffffffffffffffffffffffffffffffffff16815260200183815260200182815260200194505050505060405180910390f35b6105f5600480360360208110156105df57600080fd5b810190808035906020019092919050505061359b565b005b6105ff613a33565b005b6106436004803603602081101561061757600080fd5b81019080803573ffffffffffffffffffffffffffffffffffffffff169060200190929190505050613eac565b604051808215151515815260200191505060405180910390f35b610665613f1d565b005b6106a96004803603602081101561067d57600080fd5b81019080803573ffffffffffffffffffffffffffffffffffffffff1690602001909291905050506144ac565b005b61070d600480360360408110156106c157600080fd5b81019080803573ffffffffffffffffffffffffffffffffffffffff169060200190929190803573ffffffffffffffffffffffffffffffffffffffff169060200190929190505050614a97565b005b600080600080600061071f61336a565b610791576040517f08c379a000000000000000000000000000000000000000000000000000000000815260040180806020018281038252600d8152602001807f4973206e6f742061646d696e210000000000000000000000000000000000000081525060200191505060405180910390fd5b6007600087815260200190815260200160002060020160049054906101000a900460ff16610827576040517f08c379a00000000000000000000000000000000000000000000000000000000081526004018080602001828103825260198152602001807f546865207061796d656e7420646f65736e27742065786973740000000000000081525060200191505060405180910390fd5b6007600087815260200190815260200160002060000160009054906101000a900473ffffffffffffffffffffffffffffffffffffffff1660076000888152602001908152602001600020600101546007600089815260200190815260200160002060020160009054906101000a900463ffffffff16600760008a815260200190815260200160002060020160059054906101000a900460ff16600760008b8152602001908152602001600020600301549450945094509450945091939590929450565b336108f481611b16565b610966576040517f08c379a000000000000000000000000000000000000000000000000000000000815260040180806020018281038252601e8152602001807f546865207061727469636970616e7420646f65736e277420657869737473000081525060200191505060405180910390fd5b6000600260009054906101000a900473ffffffffffffffffffffffffffffffffffffffff1690508073ffffffffffffffffffffffffffffffffffffffff166369fab0b260016040518263ffffffff1660e01b81526004018080602001828103825283818154600181600116156101000203166002900481526020019150805460018160011615610100020316600290048015610a435780601f10610a1857610100808354040283529160200191610a43565b820191906000526020600020905b815481529060010190602001808311610a2657829003601f168201915b50509250505060206040518083038186803b158015610a6157600080fd5b505afa158015610a75573d6000803e3d6000fd5b505050506040513d6020811015610a8b57600080fd5b8101908080519060200190929190505050610af1576040517f08c379a00000000000000000000000000000000000000000000000000000000081526004018080602001828103825260218152602001806153856021913960400191505060405180910390fd5b8073ffffffffffffffffffffffffffffffffffffffff1663ecc0a60160016040518263ffffffff1660e01b81526004018080602001828103825283818154600181600116156101000203166002900481526020019150805460018160011615610100020316600290048015610ba75780601f10610b7c57610100808354040283529160200191610ba7565b820191906000526020600020905b815481529060010190602001808311610b8a57829003601f168201915b50509250505060206040518083038186803b158015610bc557600080fd5b505afa158015610bd9573d6000803e3d6000fd5b505050506040513d6020811015610bef57600080fd5b8101908080519060200190929190505050610c72576040517f08c379a00000000000000000000000000000000000000000000000000000000081526004018080602001828103825260148152602001807f526f6e6461206973206e6f74206163746976652100000000000000000000000081525060200191505060405180910390fd5b6001600454016004819055503360076000600454815260200190815260200160002060000160006101000a81548173ffffffffffffffffffffffffffffffffffffffff021916908373ffffffffffffffffffffffffffffffffffffffff16021790555043600760006004548152602001908152602001600020600101819055508260076000600454815260200190815260200160002060020160006101000a81548163ffffffff021916908363ffffffff160217905550600160076000600454815260200190815260200160002060020160046101000a81548160ff021916908315150217905550600060076000600454815260200190815260200160002060020160056101000a81548160ff0219169083151502179055506000600760006004548152602001908152602001600020600301819055503373ffffffffffffffffffffffffffffffffffffffff166000809054906101000a900473ffffffffffffffffffffffffffffffffffffffff1673ffffffffffffffffffffffffffffffffffffffff167f28b4b400f593623cb878d6b56e35a4216aacb8408e7a73b0d3425852ae08d2578543604051808363ffffffff1663ffffffff1681526020018281526020019250505060405180910390a3505050565b610e5061336a565b610ec2576040517f08c379a000000000000000000000000000000000000000000000000000000000815260040180806020018281038252600d8152602001807f4973206e6f742061646d696e210000000000000000000000000000000000000081525060200191505060405180910390fd5b80610ecc81611b16565b610f3e576040517f08c379a000000000000000000000000000000000000000000000000000000000815260040180806020018281038252601e8152602001807f546865207061727469636970616e7420646f65736e277420657869737473000081525060200191505060405180910390fd5b610f4781613eac565b610f9c576040517f08c379a00000000000000000000000000000000000000000000000000000000081526004018080602001828103825260258152602001806153606025913960400191505060405180910390fd5b6000600260009054906101000a900473ffffffffffffffffffffffffffffffffffffffff1690508073ffffffffffffffffffffffffffffffffffffffff166369fab0b260016040518263ffffffff1660e01b815260040180806020018281038252838181546001816001161561010002031660029004815260200191508054600181600116156101000203166002900480156110795780601f1061104e57610100808354040283529160200191611079565b820191906000526020600020905b81548152906001019060200180831161105c57829003601f168201915b50509250505060206040518083038186803b15801561109757600080fd5b505afa1580156110ab573d6000803e3d6000fd5b505050506040513d60208110156110c157600080fd5b8101908080519060200190929190505050611127576040517f08c379a00000000000000000000000000000000000000000000000000000000081526004018080602001828103825260218152602001806153856021913960400191505060405180910390fd5b8073ffffffffffffffffffffffffffffffffffffffff1663ecc0a60160016040518263ffffffff1660e01b815260040180806020018281038252838181546001816001161561010002031660029004815260200191508054600181600116156101000203166002900480156111dd5780601f106111b2576101008083540402835291602001916111dd565b820191906000526020600020905b8154815290600101906020018083116111c057829003601f168201915b50509250505060206040518083038186803b1580156111fb57600080fd5b505afa15801561120f573d6000803e3d6000fd5b505050506040513d602081101561122557600080fd5b81019080805190602001909291905050506112a8576040517f08c379a00000000000000000000000000000000000000000000000000000000081526004018080602001828103825260148152602001807f526f6e6461206973206e6f74206163746976652100000000000000000000000081525060200191505060405180910390fd5b6002600660008573ffffffffffffffffffffffffffffffffffffffff1673ffffffffffffffffffffffffffffffffffffffff16815260200190815260200160002060020160006101000a81548160ff0219169083600281111561130757fe5b021790555043600660008573ffffffffffffffffffffffffffffffffffffffff1673ffffffffffffffffffffffffffffffffffffffff1681526020019081526020016000206001018190555033600660008573ffffffffffffffffffffffffffffffffffffffff1673ffffffffffffffffffffffffffffffffffffffff16815260200190815260200160002060020160016101000a81548173ffffffffffffffffffffffffffffffffffffffff021916908373ffffffffffffffffffffffffffffffffffffffff1602179055508273ffffffffffffffffffffffffffffffffffffffff166000809054906101000a900473ffffffffffffffffffffffffffffffffffffffff1673ffffffffffffffffffffffffffffffffffffffff167fca136aa13d73d22f4eabce5ac7ebb29ab7887ab7443b427fbdc8e087b34faa07436040518082815260200191505060405180910390a3505050565b61146761336a565b6114d9576040517f08c379a000000000000000000000000000000000000000000000000000000000815260040180806020018281038252600d8152602001807f4973206e6f742061646d696e210000000000000000000000000000000000000081525060200191505060405180910390fd5b6000600260009054906101000a900473ffffffffffffffffffffffffffffffffffffffff1690508073ffffffffffffffffffffffffffffffffffffffff166369fab0b260016040518263ffffffff1660e01b815260040180806020018281038252838181546001816001161561010002031660029004815260200191508054600181600116156101000203166002900480156115b65780601f1061158b576101008083540402835291602001916115b6565b820191906000526020600020905b81548152906001019060200180831161159957829003601f168201915b50509250505060206040518083038186803b1580156115d457600080fd5b505afa1580156115e8573d6000803e3d6000fd5b505050506040513d60208110156115fe57600080fd5b8101908080519060200190929190505050611664576040517f08c379a00000000000000000000000000000000000000000000000000000000081526004018080602001828103825260218152602001806153856021913960400191505060405180910390fd5b8073ffffffffffffffffffffffffffffffffffffffff1663ecc0a60160016040518263ffffffff1660e01b8152600401808060200182810382528381815460018160011615610100020316600290048152602001915080546001816001161561010002031660029004801561171a5780601f106116ef5761010080835404028352916020019161171a565b820191906000526020600020905b8154815290600101906020018083116116fd57829003601f168201915b50509250505060206040518083038186803b15801561173857600080fd5b505afa15801561174c573d6000803e3d6000fd5b505050506040513d602081101561176257600080fd5b81019080805190602001909291905050506117e5576040517f08c379a00000000000000000000000000000000000000000000000000000000081526004018080602001828103825260148152602001807f526f6e6461206973206e6f74206163746976652100000000000000000000000081525060200191505060405180910390fd5b60008090505b838390508160ff161015611a72576006600085858460ff1681811061180c57fe5b9050602002013573ffffffffffffffffffffffffffffffffffffffff1673ffffffffffffffffffffffffffffffffffffffff1673ffffffffffffffffffffffffffffffffffffffff16815260200190815260200160002060020160159054906101000a900460ff16611a655783838260ff1681811061188757fe5b9050602002013573ffffffffffffffffffffffffffffffffffffffff166006600086868560ff168181106118b757fe5b9050602002013573ffffffffffffffffffffffffffffffffffffffff1673ffffffffffffffffffffffffffffffffffffffff1673ffffffffffffffffffffffffffffffffffffffff16815260200190815260200160002060000160006101000a81548173ffffffffffffffffffffffffffffffffffffffff021916908373ffffffffffffffffffffffffffffffffffffffff16021790555060006006600086868560ff1681811061196457fe5b9050602002013573ffffffffffffffffffffffffffffffffffffffff1673ffffffffffffffffffffffffffffffffffffffff1673ffffffffffffffffffffffffffffffffffffffff16815260200190815260200160002060020160006101000a81548160ff021916908360028111156119d957fe5b021790555060016006600086868560ff168181106119f357fe5b9050602002013573ffffffffffffffffffffffffffffffffffffffff1673ffffffffffffffffffffffffffffffffffffffff1673ffffffffffffffffffffffffffffffffffffffff16815260200190815260200160002060020160156101000a81548160ff0219169083151502179055505b80806001019150506117eb565b506000809054906101000a900473ffffffffffffffffffffffffffffffffffffffff1673ffffffffffffffffffffffffffffffffffffffff167f310466bacec0368233ea1509c806bce4f177ed6e90f717dbc706dd277988f52c848460405180806020018281038252848482818152602001925060200280828437600081840152601f19601f820116905080830192505050935050505060405180910390a2505050565b6000600660008373ffffffffffffffffffffffffffffffffffffffff1673ffffffffffffffffffffffffffffffffffffffff16815260200190815260200160002060020160159054906101000a900460ff169050919050565b6000611b7961336a565b611beb576040517f08c379a000000000000000000000000000000000000000000000000000000000815260040180806020018281038252600d8152602001807f4973206e6f742061646d696e210000000000000000000000000000000000000081525060200191505060405180910390fd5b600454905090565b6000806000806000611c0361336a565b611c75576040517f08c379a000000000000000000000000000000000000000000000000000000000815260040180806020018281038252600d8152602001807f4973206e6f742061646d696e210000000000000000000000000000000000000081525060200191505060405180910390fd5b600660008773ffffffffffffffffffffffffffffffffffffffff1673ffffffffffffffffffffffffffffffffffffffff16815260200190815260200160002060000160009054906101000a900473ffffffffffffffffffffffffffffffffffffffff16600660008873ffffffffffffffffffffffffffffffffffffffff1673ffffffffffffffffffffffffffffffffffffffff16815260200190815260200160002060010154600660008973ffffffffffffffffffffffffffffffffffffffff1673ffffffffffffffffffffffffffffffffffffffff16815260200190815260200160002060020160009054906101000a900460ff16600660008a73ffffffffffffffffffffffffffffffffffffffff1673ffffffffffffffffffffffffffffffffffffffff16815260200190815260200160002060020160019054906101000a900473ffffffffffffffffffffffffffffffffffffffff16600660008b73ffffffffffffffffffffffffffffffffffffffff1673ffffffffffffffffffffffffffffffffffffffff16815260200190815260200160002060020160159054906101000a900460ff169450945094509450945091939590929450565b611e3961336a565b611eab576040517f08c379a000000000000000000000000000000000000000000000000000000000815260040180806020018281038252600d8152602001807f4973206e6f742061646d696e210000000000000000000000000000000000000081525060200191505060405180910390fd5b80611eb581611b16565b611f27576040517f08c379a000000000000000000000000000000000000000000000000000000000815260040180806020018281038252601e8152602001807f546865207061727469636970616e7420646f65736e277420657869737473000081525060200191505060405180910390fd5b611f3081613eac565b611f85576040517f08c379a00000000000000000000000000000000000000000000000000000000081526004018080602001828103825260258152602001806153606025913960400191505060405180910390fd5b6000600260009054906101000a900473ffffffffffffffffffffffffffffffffffffffff1690508073ffffffffffffffffffffffffffffffffffffffff166369fab0b260016040518263ffffffff1660e01b815260040180806020018281038252838181546001816001161561010002031660029004815260200191508054600181600116156101000203166002900480156120625780601f1061203757610100808354040283529160200191612062565b820191906000526020600020905b81548152906001019060200180831161204557829003601f168201915b50509250505060206040518083038186803b15801561208057600080fd5b505afa158015612094573d6000803e3d6000fd5b505050506040513d60208110156120aa57600080fd5b8101908080519060200190929190505050612110576040517f08c379a00000000000000000000000000000000000000000000000000000000081526004018080602001828103825260218152602001806153856021913960400191505060405180910390fd5b8073ffffffffffffffffffffffffffffffffffffffff1663ecc0a60160016040518263ffffffff1660e01b815260040180806020018281038252838181546001816001161561010002031660029004815260200191508054600181600116156101000203166002900480156121c65780601f1061219b576101008083540402835291602001916121c6565b820191906000526020600020905b8154815290600101906020018083116121a957829003601f168201915b50509250505060206040518083038186803b1580156121e457600080fd5b505afa1580156121f8573d6000803e3d6000fd5b505050506040513d602081101561220e57600080fd5b8101908080519060200190929190505050612291576040517f08c379a00000000000000000000000000000000000000000000000000000000081526004018080602001828103825260148152602001807f526f6e6461206973206e6f74206163746976652100000000000000000000000081525060200191505060405180910390fd5b6001600660008573ffffffffffffffffffffffffffffffffffffffff1673ffffffffffffffffffffffffffffffffffffffff16815260200190815260200160002060020160006101000a81548160ff021916908360028111156122f057fe5b021790555043600660008573ffffffffffffffffffffffffffffffffffffffff1673ffffffffffffffffffffffffffffffffffffffff1681526020019081526020016000206001018190555033600660008573ffffffffffffffffffffffffffffffffffffffff1673ffffffffffffffffffffffffffffffffffffffff16815260200190815260200160002060020160016101000a81548173ffffffffffffffffffffffffffffffffffffffff021916908373ffffffffffffffffffffffffffffffffffffffff1602179055508273ffffffffffffffffffffffffffffffffffffffff166000809054906101000a900473ffffffffffffffffffffffffffffffffffffffff1673ffffffffffffffffffffffffffffffffffffffff167fc4ee96700fd4aec0fc65c2e1638e56be841bedf93a9dab5fefb3c11fdbd05586436040518082815260200191505060405180910390a3505050565b3361245281611b16565b6124c4576040517f08c379a000000000000000000000000000000000000000000000000000000000815260040180806020018281038252601e8152602001807f546865207061727469636970616e7420646f65736e277420657869737473000081525060200191505060405180910390fd5b6000600260009054906101000a900473ffffffffffffffffffffffffffffffffffffffff1690508073ffffffffffffffffffffffffffffffffffffffff166369fab0b260016040518263ffffffff1660e01b815260040180806020018281038252838181546001816001161561010002031660029004815260200191508054600181600116156101000203166002900480156125a15780601f10612576576101008083540402835291602001916125a1565b820191906000526020600020905b81548152906001019060200180831161258457829003601f168201915b50509250505060206040518083038186803b1580156125bf57600080fd5b505afa1580156125d3573d6000803e3d6000fd5b505050506040513d60208110156125e957600080fd5b810190808051906020019092919050505061264f576040517f08c379a00000000000000000000000000000000000000000000000000000000081526004018080602001828103825260218152602001806153856021913960400191505060405180910390fd5b8073ffffffffffffffffffffffffffffffffffffffff1663ecc0a60160016040518263ffffffff1660e01b815260040180806020018281038252838181546001816001161561010002031660029004815260200191508054600181600116156101000203166002900480156127055780601f106126da57610100808354040283529160200191612705565b820191906000526020600020905b8154815290600101906020018083116126e857829003601f168201915b50509250505060206040518083038186803b15801561272357600080fd5b505afa158015612737573d6000803e3d6000fd5b505050506040513d602081101561274d57600080fd5b81019080805190602001909291905050506127d0576040517f08c379a00000000000000000000000000000000000000000000000000000000081526004018080602001828103825260148152602001807f526f6e6461206973206e6f74206163746976652100000000000000000000000081525060200191505060405180910390fd5b6001600554016005819055503360086000600554815260200190815260200160002060000160006101000a81548173ffffffffffffffffffffffffffffffffffffffff021916908373ffffffffffffffffffffffffffffffffffffffff16021790555043600860006005548152602001908152602001600020600201819055503360086000600554815260200190815260200160002060010160006101000a81548173ffffffffffffffffffffffffffffffffffffffff021916908373ffffffffffffffffffffffffffffffffffffffff1602179055508260086000600554815260200190815260200160002060030160006101000a81548163ffffffff021916908363ffffffff160217905550600160086000600554815260200190815260200160002060030160046101000a81548160ff0219169083151502179055503373ffffffffffffffffffffffffffffffffffffffff163373ffffffffffffffffffffffffffffffffffffffff167f3110aa6906578f62c4b1b613e353a69459fbfe274869f2b3de6538b49db423658543604051808363ffffffff1663ffffffff1681526020018281526020019250505060405180910390a3505050565b61299561336a565b612a07576040517f08c379a000000000000000000000000000000000000000000000000000000000815260040180806020018281038252600d8152602001807f4973206e6f742061646d696e210000000000000000000000000000000000000081525060200191505060405180910390fd5b6000600260009054906101000a900473ffffffffffffffffffffffffffffffffffffffff1690508073ffffffffffffffffffffffffffffffffffffffff166369fab0b260016040518263ffffffff1660e01b81526004018080602001828103825283818154600181600116156101000203166002900481526020019150805460018160011615610100020316600290048015612ae45780601f10612ab957610100808354040283529160200191612ae4565b820191906000526020600020905b815481529060010190602001808311612ac757829003601f168201915b50509250505060206040518083038186803b158015612b0257600080fd5b505afa158015612b16573d6000803e3d6000fd5b505050506040513d6020811015612b2c57600080fd5b8101908080519060200190929190505050612b92576040517f08c379a00000000000000000000000000000000000000000000000000000000081526004018080602001828103825260218152602001806153856021913960400191505060405180910390fd5b8073ffffffffffffffffffffffffffffffffffffffff1663ecc0a60160016040518263ffffffff1660e01b81526004018080602001828103825283818154600181600116156101000203166002900481526020019150805460018160011615610100020316600290048015612c485780601f10612c1d57610100808354040283529160200191612c48565b820191906000526020600020905b815481529060010190602001808311612c2b57829003601f168201915b50509250505060206040518083038186803b158015612c6657600080fd5b505afa158015612c7a573d6000803e3d6000fd5b505050506040513d6020811015612c9057600080fd5b8101908080519060200190929190505050612d13576040517f08c379a00000000000000000000000000000000000000000000000000000000081526004018080602001828103825260148152602001807f526f6e6461206973206e6f74206163746976652100000000000000000000000081525060200191505060405180910390fd5b816000806101000a81548173ffffffffffffffffffffffffffffffffffffffff021916908373ffffffffffffffffffffffffffffffffffffffff1602179055505050565b6000612d6161336a565b612dd3576040517f08c379a000000000000000000000000000000000000000000000000000000000815260040180806020018281038252600d8152602001807f4973206e6f742061646d696e210000000000000000000000000000000000000081525060200191505060405180910390fd5b600554905090565b612de433611b16565b612e56576040517f08c379a000000000000000000000000000000000000000000000000000000000815260040180806020018281038252601e8152602001807f546865207061727469636970616e7420646f65736e277420657869737473000081525060200191505060405180910390fd5b612e5f33613eac565b612eb4576040517f08c379a00000000000000000000000000000000000000000000000000000000081526004018080602001828103825260258152602001806153606025913960400191505060405180910390fd5b6000600260009054906101000a900473ffffffffffffffffffffffffffffffffffffffff1690508073ffffffffffffffffffffffffffffffffffffffff166369fab0b260016040518263ffffffff1660e01b81526004018080602001828103825283818154600181600116156101000203166002900481526020019150805460018160011615610100020316600290048015612f915780601f10612f6657610100808354040283529160200191612f91565b820191906000526020600020905b815481529060010190602001808311612f7457829003601f168201915b50509250505060206040518083038186803b158015612faf57600080fd5b505afa158015612fc3573d6000803e3d6000fd5b505050506040513d6020811015612fd957600080fd5b810190808051906020019092919050505061303f576040517f08c379a00000000000000000000000000000000000000000000000000000000081526004018080602001828103825260218152602001806153856021913960400191505060405180910390fd5b8073ffffffffffffffffffffffffffffffffffffffff1663ecc0a60160016040518263ffffffff1660e01b815260040180806020018281038252838181546001816001161561010002031660029004815260200191508054600181600116156101000203166002900480156130f55780601f106130ca576101008083540402835291602001916130f5565b820191906000526020600020905b8154815290600101906020018083116130d857829003601f168201915b50509250505060206040518083038186803b15801561311357600080fd5b505afa158015613127573d6000803e3d6000fd5b505050506040513d602081101561313d57600080fd5b81019080805190602001909291905050506131c0576040517f08c379a00000000000000000000000000000000000000000000000000000000081526004018080602001828103825260148152602001807f526f6e6461206973206e6f74206163746976652100000000000000000000000081525060200191505060405180910390fd5b6001600660003373ffffffffffffffffffffffffffffffffffffffff1673ffffffffffffffffffffffffffffffffffffffff16815260200190815260200160002060020160006101000a81548160ff0219169083600281111561321f57fe5b021790555043600660003373ffffffffffffffffffffffffffffffffffffffff1673ffffffffffffffffffffffffffffffffffffffff1681526020019081526020016000206001018190555033600660003373ffffffffffffffffffffffffffffffffffffffff1673ffffffffffffffffffffffffffffffffffffffff16815260200190815260200160002060020160016101000a81548173ffffffffffffffffffffffffffffffffffffffff021916908373ffffffffffffffffffffffffffffffffffffffff1602179055503373ffffffffffffffffffffffffffffffffffffffff166000809054906101000a900473ffffffffffffffffffffffffffffffffffffffff1673ffffffffffffffffffffffffffffffffffffffff167f0aea5d769154911aca17029a430e1b8b72baecbff04fcb4c923c203bc716766360405160405180910390a350565b60008060009054906101000a900473ffffffffffffffffffffffffffffffffffffffff1673ffffffffffffffffffffffffffffffffffffffff163373ffffffffffffffffffffffffffffffffffffffff1614905090565b6000806000806133cf61336a565b613441576040517f08c379a000000000000000000000000000000000000000000000000000000000815260040180806020018281038252600d8152602001807f4973206e6f742061646d696e210000000000000000000000000000000000000081525060200191505060405180910390fd5b6008600086815260200190815260200160002060030160049054906101000a900460ff166134d7576040517f08c379a00000000000000000000000000000000000000000000000000000000081526004018080602001828103825260188152602001807f5468652063686172676520646f65736e2774206578697374000000000000000081525060200191505060405180910390fd5b6008600086815260200190815260200160002060000160009054906101000a900473ffffffffffffffffffffffffffffffffffffffff166008600087815260200190815260200160002060010160009054906101000a900473ffffffffffffffffffffffffffffffffffffffff1660086000888152602001908152602001600020600201546008600089815260200190815260200160002060030160009054906101000a900463ffffffff168063ffffffff16905093509350935093509193509193565b6135a361336a565b613615576040517f08c379a000000000000000000000000000000000000000000000000000000000815260040180806020018281038252600d8152602001807f4973206e6f742061646d696e210000000000000000000000000000000000000081525060200191505060405180910390fd5b6000600260009054906101000a900473ffffffffffffffffffffffffffffffffffffffff1690508073ffffffffffffffffffffffffffffffffffffffff166369fab0b260016040518263ffffffff1660e01b815260040180806020018281038252838181546001816001161561010002031660029004815260200191508054600181600116156101000203166002900480156136f25780601f106136c7576101008083540402835291602001916136f2565b820191906000526020600020905b8154815290600101906020018083116136d557829003601f168201915b50509250505060206040518083038186803b15801561371057600080fd5b505afa158015613724573d6000803e3d6000fd5b505050506040513d602081101561373a57600080fd5b81019080805190602001909291905050506137a0576040517f08c379a00000000000000000000000000000000000000000000000000000000081526004018080602001828103825260218152602001806153856021913960400191505060405180910390fd5b8073ffffffffffffffffffffffffffffffffffffffff1663ecc0a60160016040518263ffffffff1660e01b815260040180806020018281038252838181546001816001161561010002031660029004815260200191508054600181600116156101000203166002900480156138565780601f1061382b57610100808354040283529160200191613856565b820191906000526020600020905b81548152906001019060200180831161383957829003601f168201915b50509250505060206040518083038186803b15801561387457600080fd5b505afa158015613888573d6000803e3d6000fd5b505050506040513d602081101561389e57600080fd5b8101908080519060200190929190505050613921576040517f08c379a00000000000000000000000000000000000000000000000000000000081526004018080602001828103825260148152602001807f526f6e6461206973206e6f74206163746976652100000000000000000000000081525060200191505060405180910390fd5b6007600083815260200190815260200160002060020160049054906101000a900460ff166139b7576040517f08c379a00000000000000000000000000000000000000000000000000000000081526004018080602001828103825260198152602001807f546865207061796d656e7420646f65736e27742065786973740000000000000081525060200191505060405180910390fd5b60016007600084815260200190815260200160002060020160056101000a81548160ff02191690831515021790555043600760008481526020019081526020016000206003018190555043827f9a9ea652d15024824e64af0e7414c616eba80bfbedc749d922030a50392fa62860405160405180910390a35050565b613a3b61336a565b613aad576040517f08c379a000000000000000000000000000000000000000000000000000000000815260040180806020018281038252600d8152602001807f4973206e6f742061646d696e210000000000000000000000000000000000000081525060200191505060405180910390fd5b6000600260009054906101000a900473ffffffffffffffffffffffffffffffffffffffff1690508073ffffffffffffffffffffffffffffffffffffffff166369fab0b260016040518263ffffffff1660e01b81526004018080602001828103825283818154600181600116156101000203166002900481526020019150805460018160011615610100020316600290048015613b8a5780601f10613b5f57610100808354040283529160200191613b8a565b820191906000526020600020905b815481529060010190602001808311613b6d57829003601f168201915b50509250505060206040518083038186803b158015613ba857600080fd5b505afa158015613bbc573d6000803e3d6000fd5b505050506040513d6020811015613bd257600080fd5b8101908080519060200190929190505050613c38576040517f08c379a00000000000000000000000000000000000000000000000000000000081526004018080602001828103825260218152602001806153856021913960400191505060405180910390fd5b8073ffffffffffffffffffffffffffffffffffffffff1663ecc0a60160016040518263ffffffff1660e01b81526004018080602001828103825283818154600181600116156101000203166002900481526020019150805460018160011615610100020316600290048015613cee5780601f10613cc357610100808354040283529160200191613cee565b820191906000526020600020905b815481529060010190602001808311613cd157829003601f168201915b50509250505060206040518083038186803b158015613d0c57600080fd5b505afa158015613d20573d6000803e3d6000fd5b505050506040513d6020811015613d3657600080fd5b8101908080519060200190929190505050613db9576040517f08c379a00000000000000000000000000000000000000000000000000000000081526004018080602001828103825260148152602001807f526f6e6461206973206e6f74206163746976652100000000000000000000000081525060200191505060405180910390fd5b600060035414613e31576040517f08c379a000000000000000000000000000000000000000000000000000000000815260040180806020018281038252601c8152602001807f54686520726f6e646120697320616c726561647920737461727465640000000081525060200191505060405180910390fd5b436003819055506000809054906101000a900473ffffffffffffffffffffffffffffffffffffffff1673ffffffffffffffffffffffffffffffffffffffff167fd263e6467e44cfcc9e7c2e003ef63f1a25d2f827831b1d76385e26d26b961b416003546040518082815260200191505060405180910390a250565b6000806002811115613eba57fe5b600660008473ffffffffffffffffffffffffffffffffffffffff1673ffffffffffffffffffffffffffffffffffffffff16815260200190815260200160002060020160009054906101000a900460ff166002811115613f1557fe5b149050919050565b613f2633611b16565b613f98576040517f08c379a000000000000000000000000000000000000000000000000000000000815260040180806020018281038252601e8152602001807f546865207061727469636970616e7420646f65736e277420657869737473000081525060200191505060405180910390fd5b613fa133613eac565b613ff6576040517f08c379a00000000000000000000000000000000000000000000000000000000081526004018080602001828103825260258152602001806153606025913960400191505060405180910390fd5b6000600260009054906101000a900473ffffffffffffffffffffffffffffffffffffffff1690508073ffffffffffffffffffffffffffffffffffffffff166369fab0b260016040518263ffffffff1660e01b815260040180806020018281038252838181546001816001161561010002031660029004815260200191508054600181600116156101000203166002900480156140d35780601f106140a8576101008083540402835291602001916140d3565b820191906000526020600020905b8154815290600101906020018083116140b657829003601f168201915b50509250505060206040518083038186803b1580156140f157600080fd5b505afa158015614105573d6000803e3d6000fd5b505050506040513d602081101561411b57600080fd5b8101908080519060200190929190505050614181576040517f08c379a00000000000000000000000000000000000000000000000000000000081526004018080602001828103825260218152602001806153856021913960400191505060405180910390fd5b8073ffffffffffffffffffffffffffffffffffffffff1663ecc0a60160016040518263ffffffff1660e01b815260040180806020018281038252838181546001816001161561010002031660029004815260200191508054600181600116156101000203166002900480156142375780601f1061420c57610100808354040283529160200191614237565b820191906000526020600020905b81548152906001019060200180831161421a57829003601f168201915b50509250505060206040518083038186803b15801561425557600080fd5b505afa158015614269573d6000803e3d6000fd5b505050506040513d602081101561427f57600080fd5b8101908080519060200190929190505050614302576040517f08c379a00000000000000000000000000000000000000000000000000000000081526004018080602001828103825260148152602001807f526f6e6461206973206e6f74206163746976652100000000000000000000000081525060200191505060405180910390fd5b6002600660003373ffffffffffffffffffffffffffffffffffffffff1673ffffffffffffffffffffffffffffffffffffffff16815260200190815260200160002060020160006101000a81548160ff0219169083600281111561436157fe5b021790555043600660003373ffffffffffffffffffffffffffffffffffffffff1673ffffffffffffffffffffffffffffffffffffffff1681526020019081526020016000206001018190555033600660003373ffffffffffffffffffffffffffffffffffffffff1673ffffffffffffffffffffffffffffffffffffffff16815260200190815260200160002060020160016101000a81548173ffffffffffffffffffffffffffffffffffffffff021916908373ffffffffffffffffffffffffffffffffffffffff1602179055503373ffffffffffffffffffffffffffffffffffffffff166000809054906101000a900473ffffffffffffffffffffffffffffffffffffffff1673ffffffffffffffffffffffffffffffffffffffff167f6303c5af37b7783f8ee553692a61d574ef06252e1021dcdf04debe6b9e1efca260405160405180910390a350565b6144b461336a565b614526576040517f08c379a000000000000000000000000000000000000000000000000000000000815260040180806020018281038252600d8152602001807f4973206e6f742061646d696e210000000000000000000000000000000000000081525060200191505060405180910390fd5b6000600260009054906101000a900473ffffffffffffffffffffffffffffffffffffffff1690508073ffffffffffffffffffffffffffffffffffffffff166369fab0b260016040518263ffffffff1660e01b815260040180806020018281038252838181546001816001161561010002031660029004815260200191508054600181600116156101000203166002900480156146035780601f106145d857610100808354040283529160200191614603565b820191906000526020600020905b8154815290600101906020018083116145e657829003601f168201915b50509250505060206040518083038186803b15801561462157600080fd5b505afa158015614635573d6000803e3d6000fd5b505050506040513d602081101561464b57600080fd5b81019080805190602001909291905050506146b1576040517f08c379a00000000000000000000000000000000000000000000000000000000081526004018080602001828103825260218152602001806153856021913960400191505060405180910390fd5b8073ffffffffffffffffffffffffffffffffffffffff1663ecc0a60160016040518263ffffffff1660e01b815260040180806020018281038252838181546001816001161561010002031660029004815260200191508054600181600116156101000203166002900480156147675780601f1061473c57610100808354040283529160200191614767565b820191906000526020600020905b81548152906001019060200180831161474a57829003601f168201915b50509250505060206040518083038186803b15801561478557600080fd5b505afa158015614799573d6000803e3d6000fd5b505050506040513d60208110156147af57600080fd5b8101908080519060200190929190505050614832576040517f08c379a00000000000000000000000000000000000000000000000000000000081526004018080602001828103825260148152602001807f526f6e6461206973206e6f74206163746976652100000000000000000000000081525060200191505060405180910390fd5b600660008373ffffffffffffffffffffffffffffffffffffffff1673ffffffffffffffffffffffffffffffffffffffff16815260200190815260200160002060020160159054906101000a900460ff16156148d8576040517f08c379a000000000000000000000000000000000000000000000000000000000815260040180806020018281038252602f8152602001806153a6602f913960400191505060405180910390fd5b81600660008473ffffffffffffffffffffffffffffffffffffffff1673ffffffffffffffffffffffffffffffffffffffff16815260200190815260200160002060000160006101000a81548173ffffffffffffffffffffffffffffffffffffffff021916908373ffffffffffffffffffffffffffffffffffffffff1602179055506000600660008473ffffffffffffffffffffffffffffffffffffffff1673ffffffffffffffffffffffffffffffffffffffff16815260200190815260200160002060020160006101000a81548160ff021916908360028111156149b857fe5b02179055506001600660008473ffffffffffffffffffffffffffffffffffffffff1673ffffffffffffffffffffffffffffffffffffffff16815260200190815260200160002060020160156101000a81548160ff0219169083151502179055508173ffffffffffffffffffffffffffffffffffffffff166000809054906101000a900473ffffffffffffffffffffffffffffffffffffffff1673ffffffffffffffffffffffffffffffffffffffff167fd7fc330992ee2ab188d863322a878ee61430cd2a473f46cbf3334b59647572ed60405160405180910390a35050565b614a9f61336a565b614b11576040517f08c379a000000000000000000000000000000000000000000000000000000000815260040180806020018281038252600d8152602001807f4973206e6f742061646d696e210000000000000000000000000000000000000081525060200191505060405180910390fd5b81614b1b81611b16565b614b8d576040517f08c379a000000000000000000000000000000000000000000000000000000000815260040180806020018281038252601e8152602001807f546865207061727469636970616e7420646f65736e277420657869737473000081525060200191505060405180910390fd5b81614b9781611b16565b15614bed576040517f08c379a000000000000000000000000000000000000000000000000000000000815260040180806020018281038252602b815260200180615335602b913960400191505060405180910390fd5b6000600260009054906101000a900473ffffffffffffffffffffffffffffffffffffffff1690508073ffffffffffffffffffffffffffffffffffffffff166369fab0b260016040518263ffffffff1660e01b81526004018080602001828103825283818154600181600116156101000203166002900481526020019150805460018160011615610100020316600290048015614cca5780601f10614c9f57610100808354040283529160200191614cca565b820191906000526020600020905b815481529060010190602001808311614cad57829003601f168201915b50509250505060206040518083038186803b158015614ce857600080fd5b505afa158015614cfc573d6000803e3d6000fd5b505050506040513d6020811015614d1257600080fd5b8101908080519060200190929190505050614d78576040517f08c379a00000000000000000000000000000000000000000000000000000000081526004018080602001828103825260218152602001806153856021913960400191505060405180910390fd5b8073ffffffffffffffffffffffffffffffffffffffff1663ecc0a60160016040518263ffffffff1660e01b81526004018080602001828103825283818154600181600116156101000203166002900481526020019150805460018160011615610100020316600290048015614e2e5780601f10614e0357610100808354040283529160200191614e2e565b820191906000526020600020905b815481529060010190602001808311614e1157829003601f168201915b50509250505060206040518083038186803b158015614e4c57600080fd5b505afa158015614e60573d6000803e3d6000fd5b505050506040513d6020811015614e7657600080fd5b8101908080519060200190929190505050614ef9576040517f08c379a00000000000000000000000000000000000000000000000000000000081526004018080602001828103825260148152602001807f526f6e6461206973206e6f74206163746976652100000000000000000000000081525060200191505060405180910390fd5b83600660008673ffffffffffffffffffffffffffffffffffffffff1673ffffffffffffffffffffffffffffffffffffffff16815260200190815260200160002060000160006101000a81548173ffffffffffffffffffffffffffffffffffffffff021916908373ffffffffffffffffffffffffffffffffffffffff1602179055506000600660008673ffffffffffffffffffffffffffffffffffffffff1673ffffffffffffffffffffffffffffffffffffffff16815260200190815260200160002060010181905550600060035414156150b8576000600660008673ffffffffffffffffffffffffffffffffffffffff1673ffffffffffffffffffffffffffffffffffffffff16815260200190815260200160002060020160006101000a81548160ff0219169083600281111561502c57fe5b02179055506000600660008673ffffffffffffffffffffffffffffffffffffffff1673ffffffffffffffffffffffffffffffffffffffff16815260200190815260200160002060020160016101000a81548173ffffffffffffffffffffffffffffffffffffffff021916908373ffffffffffffffffffffffffffffffffffffffff1602179055506151e5565b6001600660008673ffffffffffffffffffffffffffffffffffffffff1673ffffffffffffffffffffffffffffffffffffffff16815260200190815260200160002060020160006101000a81548160ff0219169083600281111561511757fe5b021790555033600660008673ffffffffffffffffffffffffffffffffffffffff1673ffffffffffffffffffffffffffffffffffffffff16815260200190815260200160002060020160016101000a81548173ffffffffffffffffffffffffffffffffffffffff021916908373ffffffffffffffffffffffffffffffffffffffff16021790555043600660008673ffffffffffffffffffffffffffffffffffffffff1673ffffffffffffffffffffffffffffffffffffffff168152602001908152602001600020600101819055505b6000600660008773ffffffffffffffffffffffffffffffffffffffff1673ffffffffffffffffffffffffffffffffffffffff16815260200190815260200160002060020160156101000a81548160ff0219169083151502179055506001600660008673ffffffffffffffffffffffffffffffffffffffff1673ffffffffffffffffffffffffffffffffffffffff16815260200190815260200160002060020160156101000a81548160ff0219169083151502179055508373ffffffffffffffffffffffffffffffffffffffff168573ffffffffffffffffffffffffffffffffffffffff166000809054906101000a900473ffffffffffffffffffffffffffffffffffffffff1673ffffffffffffffffffffffffffffffffffffffff167f2d2e8dc612b8cb1f323b3f9699b46bee371c02e375576b3b366c32299e6b9edc60405160405180910390a4505050505056fe546865207061727469636970616e7420616c72656164792065786973747320696e2074686520526f6e6461546865207061727469636970616e74207374617465206d7573742062652070656e64696e67526f6e646120646f6573206e6f7420657869737420696e20726567697374727921546865207061727469636970616e7420697320616c72656164792070726573656e74206f6e2074686520726f756e64a265627a7a72315820f41894483a76784da3a8813520d517f29d160fade6b386e0302f64b8b1ba4e9b64736f6c63430005100032",
  "source": "// SPDX-License-Identifier: UNLICENSED\npragma solidity >=0.4.21;\nimport \"./RondasRegistry.sol\";\n\ncontract Ronda {\n    address admin; // ronda admin\n    string id; // The Ronda ID\n    address registry; // The registry contract address\n    uint256 startDate; // start date of the ronda\n    uint256 currentPayment = 0; // Curent index of the round Payments\n    uint256 currentCharge = 0; // Curent index of the round Payments\n\n    /**\n        STATES\n        PENDING => Participant did not accept / reject the invitation yet\n        ACCEPTED => Participant accepted to take part in the round\n        REJECTED => Participant rejected the invitation to participate in the Round\n     */\n    enum ParticipantState {\n        PENDING,\n        ACCEPTED,\n        REJECTED\n    }\n\n    struct RondaParticipant {\n        address participant; // address of the ronda participant\n        uint256 acceptedMoment; // block number of the moment the participant ACCEPTED or REJECTED to be part of the ronda\n        ParticipantState state; // See enum data\n        address madeBy; // who made the action of reject or accept?\n        bool exists;\n    }\n\n    struct RondaPayment {\n        address participant; // Participant that made the payment\n        uint256 doneMoment; // At what moment was done\n        uint32 amount; // Amount of the payment\n        bool exists;\n        bool deleted;\n        uint256 deletedMoment;\n    }\n\n    struct RondaCharge {\n        address participant; // Participant that received the payment\n        address confirmedBy; // Participant that confirmed the payment\n        uint256 doneMoment; // At what moment was done\n        uint32 amount; // Amount of the payment\n        bool exists;\n    }\n\n    // stores all the participants\n    mapping(address => RondaParticipant) participants;\n\n    // Store payments\n    mapping(uint256 => RondaPayment) payments;\n\n    // Store charges\n    mapping(uint256 => RondaCharge) charges;\n\n    // Event to trigger when we add participants to a Ronda\n    event AddParticipantsToRonda(\n        address indexed _admin,\n        address[] _participants\n    );\n\n    // Event to trigger when we add participant to a Ronda\n    event AddParticipantToRonda(\n        address indexed _admin,\n        address indexed _participant\n    );\n\n    // Event to trigger when a participant accept an invitation\n    event AcceptParticipantToRonda(\n        address indexed _admin,\n        address indexed _participant\n    );\n\n    // Event to trigger when a participant reject an invitation\n    event RejectParticipantToRonda(\n        address indexed _admin,\n        address indexed _participant\n    );\n\n    // Event to trigger when the ronda has started\n    event RondaStarted(address indexed _admin, uint256 _blockNumber);\n\n    // Event to trigger when the Admin accepts an invitation from a participant\n    event AcceptInvitationByAdmin(\n        address indexed _admin,\n        address indexed _participant,\n        uint256 _blockNumber\n    );\n\n    // Event to trigger when the Admin reject an invitation from a participant\n    event RejectInvitationByAdmin(\n        address indexed _admin,\n        address indexed _participant,\n        uint256 _blockNumber\n    );\n\n    // Event to trigger when the sender will record a payment with that amount and the block number\n    event MakePayment(\n        address indexed _admin,\n        address indexed _participant,\n        uint32 _amount,\n        uint256 _blockNumber\n    );\n\n    // Event to trigger when a participant or admin confirms a Ronda Charge\n    event MakeCharge(\n        address indexed _participant,\n        address indexed _confirmedBy,\n        uint32 _amount,\n        uint256 _blockNumber\n    );\n\n    // Event that will replace a participant from a ronda with a new one\n    event ReplaceParticipant(\n        address indexed admin,\n        address indexed _oldParticipant,\n        address indexed _newParticipant\n    );\n\n    // When a payment is deleted\n    event DeletedPayment(uint256 indexed number, uint256 indexed timeMade);\n\n    /**\n        @notice Modifier for participant check access\n        @dev this modifier requires that the participant exists and also that the participant is on PENDING status\n    */\n    modifier onlyExistantAndPendingParticipant() {\n        require(\n            participantExists(msg.sender),\n            \"The participant doesn't exists\"\n        );\n        require(\n            participantStateIsPending(msg.sender),\n            \"The participant state must be pending\"\n        );\n        _;\n    }\n\n    /**\n        @notice Modifier for admin check access to perform certain operations over a participant\n        @dev this modifier requires that the participant exists in the ronda and also that the participant is on PENDING status\n    */\n    modifier participantExistsAndIsPending(address _addr) {\n        require(participantExists(_addr), \"The participant doesn't exists\");\n        require(\n            participantStateIsPending(_addr),\n            \"The participant state must be pending\"\n        );\n        _;\n    }\n\n    /**\n        @notice Modifier to check if Ronda is still active\n        @dev this modifier requires that the ronda is not finished\n    */\n    modifier rondaIsActive() {\n        RondasRegistry registrySC = RondasRegistry(registry);\n        require(\n            registrySC.rondaExists(id),\n            \"Ronda does not exist in registry!\"\n        );\n        require(registrySC.rondaIsActive(id), \"Ronda is not active!\");\n        _;\n    }\n\n    /**\n        @dev Modifier for functions that can be run by only admin\n     */\n    modifier onlyAdmin() {\n        require(isAdmin(), \"Is not admin!\");\n        _;\n    }\n\n    /**\n        @notice Only the admin will pass this check\n     */\n    function isAdmin() public view returns (bool) {\n        return msg.sender == admin;\n    }\n\n    /**\n        @notice This function checks if a participant address exists in the Ronda\n        @param _addr address This is the address of the participant we are checking\n        @return bool\n    */\n    function participantExists(address _addr) public view returns (bool) {\n        return participants[_addr].exists;\n    }\n\n    /**\n        @notice Function that checks if participant is on state PENDING\n        @param _addr address of the participant\n        @return bool\n     */\n    function participantStateIsPending(address _addr)\n        public\n        view\n        returns (bool)\n    {\n        return participants[_addr].state == ParticipantState.PENDING;\n    }\n\n    /**\n        @notice check only for the participant existance\n        @param _addr address Participant address if exists in the Ronda\n    */\n    modifier participantExistsInRound(address _addr) {\n        require(participantExists(_addr), \"The participant doesn't exists\");\n        _;\n    }\n\n    /**\n        @notice check that the participant DOES NOT exist in the Ronda\n        @param _addr address Participant address if exists in the Ronda\n    */\n    modifier participantNotExistsInRound(address _addr) {\n        require(\n            !participantExists(_addr),\n            \"The participant already exists in the Ronda\"\n        );\n        _;\n    }\n\n    constructor(\n        address _admin,\n        address _registry,\n        string memory _id\n    ) public {\n        admin = _admin;\n        registry = _registry;\n        id = _id;\n    }\n\n    /**\n        @notice Given a certain address of participant, return the participant data related it\n        @dev Only the admin should use this function see {onlyAdmin}\n        @param _addr address of the participant\n        @return address of the participant\n        @return uint256 accepted or rejected moment\n        @return ParticipantState state of the participant see {ParticipantState}\n        @return address who made the action of reject or accept?\n        @return bool internal use to see if the participant exists or not in Ronda\n\n    */\n    function getParticipant(address _addr)\n        external\n        view\n        onlyAdmin\n        returns (\n            address,\n            uint256,\n            ParticipantState,\n            address,\n            bool\n        )\n    {\n        return (\n            participants[_addr].participant,\n            participants[_addr].acceptedMoment,\n            participants[_addr].state,\n            participants[_addr].madeBy,\n            participants[_addr].exists\n        );\n    }\n\n    /**\n        @notice Given an array of addresses (who will be participants) it adds them to the round and stores them\n        Participants will be in a pending state until they accept or reject the round invitation\n        @dev Only the admin may call this function see {onlyAdmin}\n        @param _addresses address[] array of participants address to be added into the Ronda\n     */\n    function addParticipants(address[] calldata _addresses)\n        external\n        onlyAdmin\n        rondaIsActive\n    {\n        for (uint8 i = 0; i < _addresses.length; i++) {\n            if (!participants[_addresses[i]].exists) {\n                participants[_addresses[i]].participant = _addresses[i];\n                participants[_addresses[i]].state = ParticipantState.PENDING;\n                participants[_addresses[i]].exists = true;\n            }\n        }\n        emit AddParticipantsToRonda(admin, _addresses);\n    }\n\n    /**\n        @notice Given an address, add it as a participant to the round, same as the addParticipants but only 1 at a time\n        @dev Only the admin may call this function see {onlyAdmin}\n        @param _participantAddr address Participant Address to add in the Ronda\n     */\n    function addParticipant(address _participantAddr)\n        external\n        onlyAdmin\n        rondaIsActive\n    {\n        require(\n            !participants[_participantAddr].exists,\n            \"The participant is already present on the round\"\n        );\n\n        participants[_participantAddr].participant = _participantAddr;\n        participants[_participantAddr].state = ParticipantState.PENDING;\n        participants[_participantAddr].exists = true;\n\n        emit AddParticipantToRonda(admin, _participantAddr);\n    }\n\n    /**\n        @notice A participant may call this function to accept the invitation to a Round.\n        @dev The accepted/rejected moment will be recorded with the block number\n        @dev The participant must exist, be the sender, and be pending in order to accept see {onlyExistantAndPendingParticipant}\n     */\n    function acceptInvitationToParticipate()\n        external\n        onlyExistantAndPendingParticipant\n        rondaIsActive\n    {\n        participants[msg.sender].state = ParticipantState.ACCEPTED;\n        participants[msg.sender].acceptedMoment = block.number;\n        participants[msg.sender].madeBy = msg.sender;\n\n        emit AcceptParticipantToRonda(admin, msg.sender);\n    }\n\n    /**\n        @notice A participant may call this function to REJECT the invitation to a Round.\n        @dev The accepted/rejected moment will be recorded with the block number\n        @dev The participant must exist, be the sender, and be pending in order to accept see {onlyExistantAndPendingParticipant}\n     */\n    function rejectInvitationToParticipate()\n        external\n        onlyExistantAndPendingParticipant\n        rondaIsActive\n    {\n        participants[msg.sender].state = ParticipantState.REJECTED;\n        participants[msg.sender].acceptedMoment = block.number;\n        participants[msg.sender].madeBy = msg.sender;\n\n        emit RejectParticipantToRonda(admin, msg.sender);\n    }\n\n    /**\n        @notice The admin may call this function to \"start\" a round and record it start block\n        @dev Only the admin may call this function see {onlyAdmin}\n    */\n    function start() external onlyAdmin rondaIsActive {\n        require(startDate == 0, \"The ronda is already started\");\n\n        startDate = block.number;\n\n        emit RondaStarted(admin, startDate);\n    }\n\n    /**\n        @notice The admin may call this function to ACCEPT the invitation to a Round of a participant.\n        @dev The accepted moment will be recorded with the block number \n        @dev The participant must exist, and be pending in order to accept see {participantExistsAndIsPending}\n        @dev Only the admin may call this function see {onlyAdmin}\n        @param _participant address Participant Address\n     */\n    function acceptInvitationByAdmin(address _participant)\n        external\n        onlyAdmin\n        participantExistsAndIsPending(_participant)\n        rondaIsActive\n    {\n        participants[_participant].state = ParticipantState.ACCEPTED;\n        participants[_participant].acceptedMoment = block.number;\n        participants[_participant].madeBy = msg.sender;\n\n        emit AcceptInvitationByAdmin(admin, _participant, block.number);\n    }\n\n    /**\n        @notice The admin may call this function to REJECT the invitation to a Round of a participant.\n        @dev The rejected moment will be recorded with the block number\n        @dev The participant must exist, and be pending in order to accept see {participantExistsAndIsPending}\n        @dev Only the admin may call this function see {onlyAdmin}\n     */\n    function rejectInvitationByAdmin(address _participant)\n        external\n        onlyAdmin\n        participantExistsAndIsPending(_participant)\n        rondaIsActive\n    {\n        participants[_participant].state = ParticipantState.REJECTED;\n        participants[_participant].acceptedMoment = block.number;\n        participants[_participant].madeBy = msg.sender;\n\n        emit RejectInvitationByAdmin(admin, _participant, block.number);\n    }\n\n    /**\n        @notice The admin may call this function to replace a participant in the round \n        The old participant address and the new one must be provided for them to be changed\n        @dev In case that the round hasn't started, the participant will be in a pending state\n        @dev In started rounds it will be automatically accepted\n        @dev The participant must exist in round see {participantExistsInRound}\n        @dev Only the admin may call this function see {onlyAdmin}\n        @param _oldParticipant address Participant old address\n        @param _newParticipant address Participant new address\n     */\n    function replaceParticipant(\n        address _oldParticipant,\n        address _newParticipant\n    )\n        external\n        onlyAdmin\n        participantExistsInRound(_oldParticipant)\n        participantNotExistsInRound(_newParticipant)\n        rondaIsActive\n    {\n        participants[_newParticipant].participant = _newParticipant;\n        participants[_newParticipant].acceptedMoment = 0;\n        if (startDate == 0) {\n            participants[_newParticipant].state = ParticipantState.PENDING;\n            participants[_newParticipant].madeBy = address(0);\n        } else {\n            participants[_newParticipant].state = ParticipantState.ACCEPTED;\n            participants[_newParticipant].madeBy = msg.sender;\n            participants[_newParticipant].acceptedMoment = block.number;\n        }\n        participants[_oldParticipant].exists = false;\n        participants[_newParticipant].exists = true;\n\n        emit ReplaceParticipant(admin, _oldParticipant, _newParticipant);\n    }\n\n    /**\n        @notice Given an amount, the sender will record a payment with that amount and the block number that was performed on\n        @dev Any participant may call this function as long as they exist in the round see {participantExistsInRound}\n        @param amount uint32 Amount \n     */\n    function makeCharge(uint32 amount)\n        external\n        participantExistsInRound(msg.sender)\n        rondaIsActive\n    {\n        currentCharge = currentCharge + 1;\n        charges[currentCharge].participant = msg.sender;\n        charges[currentCharge].doneMoment = block.number;\n        charges[currentCharge].confirmedBy = msg.sender;\n        charges[currentCharge].amount = amount;\n        charges[currentCharge].exists = true;\n\n        emit MakeCharge(msg.sender, msg.sender, amount, block.number);\n    }\n\n    /**\n        @notice Given an amount, the sender will record a charge with that amount and the block number that was performed on\n        @dev Any participant may call this function as long as they exist in the round see {participantExistsInRound}\n        @param amount uint32 Amount \n     */\n    function makePayment(uint32 amount)\n        external\n        participantExistsInRound(msg.sender)\n        rondaIsActive\n    {\n        currentPayment = currentPayment + 1;\n        payments[currentPayment].participant = msg.sender;\n        payments[currentPayment].doneMoment = block.number;\n        payments[currentPayment].amount = amount;\n        payments[currentPayment].exists = true;\n        payments[currentPayment].deleted = false;\n        payments[currentPayment].deletedMoment = 0;\n\n        emit MakePayment(admin, msg.sender, amount, block.number);\n    }\n\n    /**\n        @notice Allows the admin to inspect the data of a given payment number\n        @dev Only the admin may call this function see {onlyAdmin}\n        @param  _number uint256 payment number\n        @return address who made it\n        @return uint256 at what moment\n        @return uint32 the amount\n     */\n    function getPayment(uint256 _number)\n        external\n        view\n        onlyAdmin\n        returns (\n            address,\n            uint256,\n            uint32,\n            bool,\n            uint256\n        )\n    {\n        require(payments[_number].exists, \"The payment doesn't exist\");\n        return (\n            payments[_number].participant,\n            payments[_number].doneMoment,\n            payments[_number].amount,\n            payments[_number].deleted,\n            payments[_number].deletedMoment\n        );\n    }\n\n    /**\n        @notice Allows the admin to inspect the data of a given payment number\n        @dev Only the admin may call this function see {onlyAdmin}\n        @param  _number uint256 payment number\n        @return address who made it\n        @return uint256 at what moment\n        @return uint32 the amount\n     */\n    function getCharge(uint256 _number)\n        external\n        view\n        onlyAdmin\n        returns (\n            address,\n            address,\n            uint256,\n            uint256\n        )\n    {\n        require(charges[_number].exists, \"The charge doesn't exist\");\n        return (\n            charges[_number].participant,\n            charges[_number].confirmedBy,\n            charges[_number].doneMoment,\n            charges[_number].amount\n        );\n    }\n\n    /**\n        @notice Allows the admin to delete a payment and mark it as deleted with its block number\n        @dev Only the admin may call this function see {onlyAdmin}\n     */\n    function deletePayment(uint256 _number) external onlyAdmin rondaIsActive {\n        require(payments[_number].exists, \"The payment doesn't exist\");\n        payments[_number].deleted = true;\n        payments[_number].deletedMoment = block.number;\n\n        emit DeletedPayment(_number, block.number);\n    }\n\n    /**\n        @notice Allows the admin to get the current quantity of payments registered on the Round\n        @dev Only the admin may call this function see {onlyAdmin}\n        @return uint256 number of payments of the round.\n     */\n    function getQuantityOfPayments() external view onlyAdmin returns (uint256) {\n        return currentPayment;\n    }\n\n    /**\n        @notice Allows the admin to get the current quantity of charges registered on the Round\n        @dev Only the admin may call this function see {onlyAdmin}\n        @return uint256 number of charges of the round.\n     */\n    function getQuantityOfCharges() external view onlyAdmin returns (uint256) {\n        return currentCharge;\n    }\n\n    /**\n        @notice Allows the admin to pass the admin to another address\n        @dev Only the admin may call this function see {onlyAdmin}\n     */\n    function changeAdmin(address _newAdmin) external onlyAdmin rondaIsActive {\n        admin = _newAdmin;\n    }\n}\n",
  "sourcePath": "/Users/debrayperalta/Documents/Work/ronda/smart contract/contracts/Ronda.sol",
  "compiler": {
    "name": "solc",
    "version": "0.5.16+commit.9c3226ce.Emscripten.clang"
  },
  "schemaVersion": "3.3.1",
  "updatedAt": "2021-10-21T17:22:21.154Z",
  "devdoc": {
    "methods": {
      "acceptInvitationByAdmin(address)": {
        "details": "The accepted moment will be recorded with the block number The participant must exist, and be pending in order to accept see {participantExistsAndIsPending}Only the admin may call this function see {onlyAdmin}",
        "params": {
          "_participant": "address Participant Address"
        }
      },
      "acceptInvitationToParticipate()": {
        "details": "The accepted/rejected moment will be recorded with the block numberThe participant must exist, be the sender, and be pending in order to accept see {onlyExistantAndPendingParticipant}"
      },
      "addParticipant(address)": {
        "details": "Only the admin may call this function see {onlyAdmin}",
        "params": {
          "_participantAddr": "address Participant Address to add in the Ronda"
        }
      },
      "addParticipants(address[])": {
        "details": "Only the admin may call this function see {onlyAdmin}",
        "params": {
          "_addresses": "address[] array of participants address to be added into the Ronda"
        }
      },
      "changeAdmin(address)": {
        "details": "Only the admin may call this function see {onlyAdmin}"
      },
      "deletePayment(uint256)": {
        "details": "Only the admin may call this function see {onlyAdmin}"
      },
      "getCharge(uint256)": {
        "details": "Only the admin may call this function see {onlyAdmin}",
        "params": {
          "_number": "uint256 payment number"
        },
        "return": "address who made ituint256 at what momentuint32 the amount"
      },
      "getParticipant(address)": {
        "details": "Only the admin should use this function see {onlyAdmin}",
        "params": {
          "_addr": "address of the participant"
        },
        "return": "address of the participantuint256 accepted or rejected momentParticipantState state of the participant see {ParticipantState}address who made the action of reject or accept?bool internal use to see if the participant exists or not in Ronda"
      },
      "getPayment(uint256)": {
        "details": "Only the admin may call this function see {onlyAdmin}",
        "params": {
          "_number": "uint256 payment number"
        },
        "return": "address who made ituint256 at what momentuint32 the amount"
      },
      "getQuantityOfCharges()": {
        "details": "Only the admin may call this function see {onlyAdmin}",
        "return": "uint256 number of charges of the round."
      },
      "getQuantityOfPayments()": {
        "details": "Only the admin may call this function see {onlyAdmin}",
        "return": "uint256 number of payments of the round."
      },
      "makeCharge(uint32)": {
        "details": "Any participant may call this function as long as they exist in the round see {participantExistsInRound}",
        "params": {
          "amount": "uint32 Amount "
        }
      },
      "makePayment(uint32)": {
        "details": "Any participant may call this function as long as they exist in the round see {participantExistsInRound}",
        "params": {
          "amount": "uint32 Amount "
        }
      },
      "participantExists(address)": {
        "params": {
          "_addr": "address This is the address of the participant we are checking"
        },
        "return": "bool"
      },
      "participantStateIsPending(address)": {
        "params": {
          "_addr": "address of the participant"
        },
        "return": "bool"
      },
      "rejectInvitationByAdmin(address)": {
        "details": "The rejected moment will be recorded with the block numberThe participant must exist, and be pending in order to accept see {participantExistsAndIsPending}Only the admin may call this function see {onlyAdmin}"
      },
      "rejectInvitationToParticipate()": {
        "details": "The accepted/rejected moment will be recorded with the block numberThe participant must exist, be the sender, and be pending in order to accept see {onlyExistantAndPendingParticipant}"
      },
      "replaceParticipant(address,address)": {
        "details": "In case that the round hasn't started, the participant will be in a pending stateIn started rounds it will be automatically acceptedThe participant must exist in round see {participantExistsInRound}Only the admin may call this function see {onlyAdmin}",
        "params": {
          "_newParticipant": "address Participant new address",
          "_oldParticipant": "address Participant old address"
        }
      },
      "start()": {
        "details": "Only the admin may call this function see {onlyAdmin}"
      }
    }
  },
  "userdoc": {
    "methods": {
      "acceptInvitationByAdmin(address)": {
        "notice": "The admin may call this function to ACCEPT the invitation to a Round of a participant."
      },
      "acceptInvitationToParticipate()": {
        "notice": "A participant may call this function to accept the invitation to a Round."
      },
      "addParticipant(address)": {
        "notice": "Given an address, add it as a participant to the round, same as the addParticipants but only 1 at a time"
      },
      "addParticipants(address[])": {
        "notice": "Given an array of addresses (who will be participants) it adds them to the round and stores them Participants will be in a pending state until they accept or reject the round invitation"
      },
      "changeAdmin(address)": {
        "notice": "Allows the admin to pass the admin to another address"
      },
      "deletePayment(uint256)": {
        "notice": "Allows the admin to delete a payment and mark it as deleted with its block number"
      },
      "getCharge(uint256)": {
        "notice": "Allows the admin to inspect the data of a given payment number"
      },
      "getParticipant(address)": {
        "notice": "Given a certain address of participant, return the participant data related it"
      },
      "getPayment(uint256)": {
        "notice": "Allows the admin to inspect the data of a given payment number"
      },
      "getQuantityOfCharges()": {
        "notice": "Allows the admin to get the current quantity of charges registered on the Round"
      },
      "getQuantityOfPayments()": {
        "notice": "Allows the admin to get the current quantity of payments registered on the Round"
      },
      "isAdmin()": {
        "notice": "Only the admin will pass this check"
      },
      "makeCharge(uint32)": {
        "notice": "Given an amount, the sender will record a payment with that amount and the block number that was performed on"
      },
      "makePayment(uint32)": {
        "notice": "Given an amount, the sender will record a charge with that amount and the block number that was performed on"
      },
      "participantExists(address)": {
        "notice": "This function checks if a participant address exists in the Ronda"
      },
      "participantStateIsPending(address)": {
        "notice": "Function that checks if participant is on state PENDING"
      },
      "rejectInvitationByAdmin(address)": {
        "notice": "The admin may call this function to REJECT the invitation to a Round of a participant."
      },
      "rejectInvitationToParticipate()": {
        "notice": "A participant may call this function to REJECT the invitation to a Round."
      },
      "replaceParticipant(address,address)": {
        "notice": "The admin may call this function to replace a participant in the round  The old participant address and the new one must be provided for them to be changed"
      },
      "start()": {
        "notice": "The admin may call this function to \"start\" a round and record it start block"
      }
    }
  }
}