{
  "contractName": "RondasRegistry",
  "abi": [
    {
      "anonymous": false,
      "inputs": [
        {
          "indexed": true,
          "internalType": "string",
          "name": "_id",
          "type": "string"
        },
        {
          "indexed": true,
          "internalType": "uint256",
          "name": "_finishedTime",
          "type": "uint256"
        }
      ],
      "name": "FinishedRonda",
      "type": "event"
    },
    {
      "anonymous": false,
      "inputs": [
        {
          "indexed": true,
          "internalType": "address",
          "name": "_admin",
          "type": "address"
        },
        {
          "indexed": false,
          "internalType": "string",
          "name": "_id",
          "type": "string"
        }
      ],
      "name": "NewRonda",
      "type": "event"
    },
    {
      "anonymous": false,
      "inputs": [
        {
          "indexed": true,
          "internalType": "address",
          "name": "previousOwner",
          "type": "address"
        },
        {
          "indexed": true,
          "internalType": "address",
          "name": "newOwner",
          "type": "address"
        }
      ],
      "name": "OwnershipTransferred",
      "type": "event"
    },
    {
      "constant": true,
      "inputs": [],
      "name": "isOwner",
      "outputs": [
        {
          "internalType": "bool",
          "name": "",
          "type": "bool"
        }
      ],
      "payable": false,
      "stateMutability": "view",
      "type": "function"
    },
    {
      "constant": true,
      "inputs": [],
      "name": "owner",
      "outputs": [
        {
          "internalType": "address",
          "name": "",
          "type": "address"
        }
      ],
      "payable": false,
      "stateMutability": "view",
      "type": "function"
    },
    {
      "constant": false,
      "inputs": [],
      "name": "renounceOwnership",
      "outputs": [],
      "payable": false,
      "stateMutability": "nonpayable",
      "type": "function"
    },
    {
      "constant": false,
      "inputs": [
        {
          "internalType": "address",
          "name": "newOwner",
          "type": "address"
        }
      ],
      "name": "transferOwnership",
      "outputs": [],
      "payable": false,
      "stateMutability": "nonpayable",
      "type": "function"
    },
    {
      "constant": false,
      "inputs": [
        {
          "internalType": "string",
          "name": "_id",
          "type": "string"
        },
        {
          "internalType": "address",
          "name": "_admin",
          "type": "address"
        }
      ],
      "name": "newRonda",
      "outputs": [],
      "payable": false,
      "stateMutability": "nonpayable",
      "type": "function"
    },
    {
      "constant": true,
      "inputs": [
        {
          "internalType": "string",
          "name": "_id",
          "type": "string"
        }
      ],
      "name": "getRondaById",
      "outputs": [
        {
          "internalType": "string",
          "name": "",
          "type": "string"
        },
        {
          "internalType": "address",
          "name": "",
          "type": "address"
        },
        {
          "internalType": "bool",
          "name": "",
          "type": "bool"
        },
        {
          "internalType": "uint256",
          "name": "",
          "type": "uint256"
        }
      ],
      "payable": false,
      "stateMutability": "view",
      "type": "function"
    },
    {
      "constant": true,
      "inputs": [
        {
          "internalType": "string",
          "name": "_id",
          "type": "string"
        }
      ],
      "name": "rondaExists",
      "outputs": [
        {
          "internalType": "bool",
          "name": "",
          "type": "bool"
        }
      ],
      "payable": false,
      "stateMutability": "view",
      "type": "function"
    },
    {
      "constant": true,
      "inputs": [
        {
          "internalType": "string",
          "name": "_id",
          "type": "string"
        }
      ],
      "name": "rondaIsActive",
      "outputs": [
        {
          "internalType": "bool",
          "name": "",
          "type": "bool"
        }
      ],
      "payable": false,
      "stateMutability": "view",
      "type": "function"
    },
    {
      "constant": false,
      "inputs": [
        {
          "internalType": "string",
          "name": "_id",
          "type": "string"
        }
      ],
      "name": "finishRonda",
      "outputs": [],
      "payable": false,
      "stateMutability": "nonpayable",
      "type": "function"
    }
  ],
  "bytecode": "0x608060405260006100146100b760201b60201c565b9050806000806101000a81548173ffffffffffffffffffffffffffffffffffffffff021916908373ffffffffffffffffffffffffffffffffffffffff1602179055508073ffffffffffffffffffffffffffffffffffffffff16600073ffffffffffffffffffffffffffffffffffffffff167f8be0079c531659141344cd1fd0a4f28419497f9722a3daafe3b4186f6b6457e060405160405180910390a3506100bf565b600033905090565b616891806100ce6000396000f3fe608060405234801561001057600080fd5b50600436106100935760003560e01c8063715018a611610066578063715018a6146103725780638da5cb5b1461037c5780638f32d59b146103c6578063ecc0a601146103e8578063f2fde38b1461047957610093565b8063291c869e1461009857806334e2677c1461013157806361afca821461026857806369fab0b2146102e1575b600080fd5b61012f600480360360408110156100ae57600080fd5b81019080803590602001906401000000008111156100cb57600080fd5b8201836020820111156100dd57600080fd5b803590602001918460018302840111640100000000831117156100ff57600080fd5b9091929391929390803573ffffffffffffffffffffffffffffffffffffffff1690602001909291905050506104bd565b005b6101a86004803603602081101561014757600080fd5b810190808035906020019064010000000081111561016457600080fd5b82018360208201111561017657600080fd5b8035906020019184600183028401116401000000008311171561019857600080fd5b9091929391929390505050610885565b60405180806020018573ffffffffffffffffffffffffffffffffffffffff1673ffffffffffffffffffffffffffffffffffffffff16815260200184151515158152602001838152602001828103825286818151815260200191508051906020019080838360005b8381101561022a57808201518184015260208101905061020f565b50505050905090810190601f1680156102575780820380516001836020036101000a031916815260200191505b509550505050505060405180910390f35b6102df6004803603602081101561027e57600080fd5b810190808035906020019064010000000081111561029b57600080fd5b8201836020820111156102ad57600080fd5b803590602001918460018302840111640100000000831117156102cf57600080fd5b9091929391929390505050610a11565b005b610358600480360360208110156102f757600080fd5b810190808035906020019064010000000081111561031457600080fd5b82018360208201111561032657600080fd5b8035906020019184600183028401116401000000008311171561034857600080fd5b9091929391929390505050610c6a565b604051808215151515815260200191505060405180910390f35b61037a610cac565b005b610384610de5565b604051808273ffffffffffffffffffffffffffffffffffffffff1673ffffffffffffffffffffffffffffffffffffffff16815260200191505060405180910390f35b6103ce610e0e565b604051808215151515815260200191505060405180910390f35b61045f600480360360208110156103fe57600080fd5b810190808035906020019064010000000081111561041b57600080fd5b82018360208201111561042d57600080fd5b8035906020019184600183028401116401000000008311171561044f57600080fd5b9091929391929390505050610e6c565b604051808215151515815260200191505060405180910390f35b6104bb6004803603602081101561048f57600080fd5b81019080803573ffffffffffffffffffffffffffffffffffffffff169060200190929190505050610eae565b005b6104c5610e0e565b610537576040517f08c379a00000000000000000000000000000000000000000000000000000000081526004018080602001828103825260208152602001807f4f776e61626c653a2063616c6c6572206973206e6f7420746865206f776e657281525060200191505060405180910390fd5b60018383604051808383808284378083019250505092505050908152602001604051809103902060010160159054906101000a900460ff16156105e2576040517f08c379a00000000000000000000000000000000000000000000000000000000081526004018080602001828103825260158152602001807f526f6e646120616c72656164792065786973747321000000000000000000000081525060200191505060405180910390fd5b6000813085856040516105f490611081565b808573ffffffffffffffffffffffffffffffffffffffff1673ffffffffffffffffffffffffffffffffffffffff1681526020018473ffffffffffffffffffffffffffffffffffffffff1673ffffffffffffffffffffffffffffffffffffffff168152602001806020018281038252848482818152602001925080828437600081840152601f19601f82011690508083019250505095505050505050604051809103906000f0801580156106ab573d6000803e3d6000fd5b509050838360018686604051808383808284378083019250505092505050908152602001604051809103902060000191906106e792919061108f565b508060018585604051808383808284378083019250505092505050908152602001604051809103902060010160006101000a81548173ffffffffffffffffffffffffffffffffffffffff021916908373ffffffffffffffffffffffffffffffffffffffff1602179055506001808585604051808383808284378083019250505092505050908152602001604051809103902060010160146101000a81548160ff0219169083151502179055506001808585604051808383808284378083019250505092505050908152602001604051809103902060010160156101000a81548160ff0219169083151502179055506000600185856040518083838082843780830192505050925050509081526020016040518091039020600201819055508173ffffffffffffffffffffffffffffffffffffffff167ffc7c8a60cbc500d35f1185b413a2d94137c9887f680235eac27e5030c5bda5b4858560405180806020018281038252848482818152602001925080828437600081840152601f19601f820116905080830192505050935050505060405180910390a250505050565b6060600080600060018686604051808383808284378083019250505092505050908152602001604051809103902060000160018787604051808383808284378083019250505092505050908152602001604051809103902060010160009054906101000a900473ffffffffffffffffffffffffffffffffffffffff1660018888604051808383808284378083019250505092505050908152602001604051809103902060010160149054906101000a900460ff1660018989604051808383808284378083019250505092505050908152602001604051809103902060020154838054600181600116156101000203166002900480601f0160208091040260200160405190810160405280929190818152602001828054600181600116156101000203166002900480156109f95780601f106109ce576101008083540402835291602001916109f9565b820191906000526020600020905b8154815290600101906020018083116109dc57829003601f168201915b50505050509350935093509350935092959194509250565b610a19610e0e565b610a8b576040517f08c379a00000000000000000000000000000000000000000000000000000000081526004018080602001828103825260208152602001807f4f776e61626c653a2063616c6c6572206973206e6f7420746865206f776e657281525060200191505060405180910390fd5b60018282604051808383808284378083019250505092505050908152602001604051809103902060010160159054906101000a900460ff16610b35576040517f08c379a00000000000000000000000000000000000000000000000000000000081526004018080602001828103825260158152602001807f526f6e646120646f6573206e6f7420657869737421000000000000000000000081525060200191505060405180910390fd5b600060018383604051808383808284378083019250505092505050908152602001604051809103902060010160146101000a81548160ff0219169083151502179055504360018383604051808383808284378083019250505092505050908152602001604051809103902060020181905550436001838360405180838380828437808301925050509250505090815260200160405180910390206000016040518082805460018160011615610100020316600290048015610c2d5780601f10610c0b576101008083540402835291820191610c2d565b820191906000526020600020905b815481529060010190602001808311610c19575b505091505060405180910390207f10605e05fea6408ec5ae65c5bfba74457ba0450a0d560f693b3f631c25253dbc60405160405180910390a35050565b600060018383604051808383808284378083019250505092505050908152602001604051809103902060010160159054906101000a900460ff16905092915050565b610cb4610e0e565b610d26576040517f08c379a00000000000000000000000000000000000000000000000000000000081526004018080602001828103825260208152602001807f4f776e61626c653a2063616c6c6572206973206e6f7420746865206f776e657281525060200191505060405180910390fd5b600073ffffffffffffffffffffffffffffffffffffffff166000809054906101000a900473ffffffffffffffffffffffffffffffffffffffff1673ffffffffffffffffffffffffffffffffffffffff167f8be0079c531659141344cd1fd0a4f28419497f9722a3daafe3b4186f6b6457e060405160405180910390a360008060006101000a81548173ffffffffffffffffffffffffffffffffffffffff021916908373ffffffffffffffffffffffffffffffffffffffff160217905550565b60008060009054906101000a900473ffffffffffffffffffffffffffffffffffffffff16905090565b60008060009054906101000a900473ffffffffffffffffffffffffffffffffffffffff1673ffffffffffffffffffffffffffffffffffffffff16610e50610f34565b73ffffffffffffffffffffffffffffffffffffffff1614905090565b600060018383604051808383808284378083019250505092505050908152602001604051809103902060010160149054906101000a900460ff16905092915050565b610eb6610e0e565b610f28576040517f08c379a00000000000000000000000000000000000000000000000000000000081526004018080602001828103825260208152602001807f4f776e61626c653a2063616c6c6572206973206e6f7420746865206f776e657281525060200191505060405180910390fd5b610f3181610f3c565b50565b600033905090565b600073ffffffffffffffffffffffffffffffffffffffff168173ffffffffffffffffffffffffffffffffffffffff161415610fc3576040517f08c379a0000000000000000000000000000000000000000000000000000000008152600401808060200182810382526026815260200180620068376026913960400191505060405180910390fd5b8073ffffffffffffffffffffffffffffffffffffffff166000809054906101000a900473ffffffffffffffffffffffffffffffffffffffff1673ffffffffffffffffffffffffffffffffffffffff167f8be0079c531659141344cd1fd0a4f28419497f9722a3daafe3b4186f6b6457e060405160405180910390a3806000806101000a81548173ffffffffffffffffffffffffffffffffffffffff021916908373ffffffffffffffffffffffffffffffffffffffff16021790555050565b615702806200113583390190565b828054600181600116156101000203166002900490600052602060002090601f016020900481019282601f106110d057803560ff19168380011785556110fe565b828001600101855582156110fe579182015b828111156110fd5782358255916020019190600101906110e2565b5b50905061110b919061110f565b5090565b61113191905b8082111561112d576000816000905550600101611115565b5090565b9056fe6080604052600060045560006005553480156200001b57600080fd5b506040516200570238038062005702833981810160405260608110156200004157600080fd5b810190808051906020019092919080519060200190929190805160405193929190846401000000008211156200007657600080fd5b838201915060208201858111156200008d57600080fd5b8251866001820283011164010000000082111715620000ab57600080fd5b8083526020830192505050908051906020019080838360005b83811015620000e1578082015181840152602081019050620000c4565b50505050905090810190601f1680156200010f5780820380516001836020036101000a031916815260200191505b50604052505050826000806101000a81548173ffffffffffffffffffffffffffffffffffffffff021916908373ffffffffffffffffffffffffffffffffffffffff16021790555081600260006101000a81548173ffffffffffffffffffffffffffffffffffffffff021916908373ffffffffffffffffffffffffffffffffffffffff1602179055508060019080519060200190620001af929190620001b9565b5050505062000268565b828054600181600116156101000203166002900490600052602060002090601f016020900481019282601f10620001fc57805160ff19168380011785556200022d565b828001600101855582156200022d579182015b828111156200022c5782518255916020019190600101906200020f565b5b5090506200023c919062000240565b5090565b6200026591905b808211156200026157600081600090555060010162000247565b5090565b90565b61548a80620002786000396000f3fe608060405234801561001057600080fd5b506004361061012c5760003560e01c80639723c97a116100ad578063be9a655511610071578063be9a6555146105f7578063c194c7ff14610601578063c39e143f1461065d578063dfafe10f14610667578063f48a4839146106ab5761012c565b80639723c97a146104d0578063a008bbca146104ee578063b6db75a0146104f8578063b82edd5c1461051a578063b99cc3b1146105c95761012c565b8063701ff9ec116100f4578063701ff9ec146103185780637143059f146103365780637699f743146104145780638a79c594146104585780638f2839701461048c5761012c565b80633280a8361461013157806348177488146101cb578063596979c1146101ff5780635b4ccc9d1461024357806368014cec146102bc575b600080fd5b61015d6004803603602081101561014757600080fd5b810190808035906020019092919050505061070f565b604051808673ffffffffffffffffffffffffffffffffffffffff1673ffffffffffffffffffffffffffffffffffffffff1681526020018581526020018463ffffffff1663ffffffff168152602001831515151581526020018281526020019550505050505060405180910390f35b6101fd600480360360208110156101e157600080fd5b81019080803563ffffffff1690602001909291905050506108ea565b005b6102416004803603602081101561021557600080fd5b81019080803573ffffffffffffffffffffffffffffffffffffffff169060200190929190505050610e48565b005b6102ba6004803603602081101561025957600080fd5b810190808035906020019064010000000081111561027657600080fd5b82018360208201111561028857600080fd5b803590602001918460208302840111640100000000831117156102aa57600080fd5b909192939192939050505061145f565b005b6102fe600480360360208110156102d257600080fd5b81019080803573ffffffffffffffffffffffffffffffffffffffff169060200190929190505050611b16565b604051808215151515815260200191505060405180910390f35b610320611b6f565b6040518082815260200191505060405180910390f35b6103786004803603602081101561034c57600080fd5b81019080803573ffffffffffffffffffffffffffffffffffffffff169060200190929190505050611bf3565b604051808673ffffffffffffffffffffffffffffffffffffffff1673ffffffffffffffffffffffffffffffffffffffff1681526020018581526020018460028111156103c057fe5b60ff1681526020018373ffffffffffffffffffffffffffffffffffffffff1673ffffffffffffffffffffffffffffffffffffffff168152602001821515151581526020019550505050505060405180910390f35b6104566004803603602081101561042a57600080fd5b81019080803573ffffffffffffffffffffffffffffffffffffffff169060200190929190505050611e31565b005b61048a6004803603602081101561046e57600080fd5b81019080803563ffffffff169060200190929190505050612448565b005b6104ce600480360360208110156104a257600080fd5b81019080803573ffffffffffffffffffffffffffffffffffffffff16906020019092919050505061298d565b005b6104d8612dd8565b6040518082815260200191505060405180910390f35b6104f6612e5c565b005b6105006133eb565b604051808215151515815260200191505060405180910390f35b6105466004803603602081101561053057600080fd5b8101908080359060200190929190505050613442565b604051808573ffffffffffffffffffffffffffffffffffffffff1673ffffffffffffffffffffffffffffffffffffffff1681526020018473ffffffffffffffffffffffffffffffffffffffff1673ffffffffffffffffffffffffffffffffffffffff16815260200183815260200182815260200194505050505060405180910390f35b6105f5600480360360208110156105df57600080fd5b810190808035906020019092919050505061361c565b005b6105ff613ab4565b005b6106436004803603602081101561061757600080fd5b81019080803573ffffffffffffffffffffffffffffffffffffffff169060200190929190505050613f2d565b604051808215151515815260200191505060405180910390f35b610665613f9e565b005b6106a96004803603602081101561067d57600080fd5b81019080803573ffffffffffffffffffffffffffffffffffffffff16906020019092919050505061452d565b005b61070d600480360360408110156106c157600080fd5b81019080803573ffffffffffffffffffffffffffffffffffffffff169060200190929190803573ffffffffffffffffffffffffffffffffffffffff169060200190929190505050614b18565b005b600080600080600061071f6133eb565b610791576040517f08c379a000000000000000000000000000000000000000000000000000000000815260040180806020018281038252600d8152602001807f4973206e6f742061646d696e210000000000000000000000000000000000000081525060200191505060405180910390fd5b6007600087815260200190815260200160002060020160049054906101000a900460ff16610827576040517f08c379a00000000000000000000000000000000000000000000000000000000081526004018080602001828103825260198152602001807f546865207061796d656e7420646f65736e27742065786973740000000000000081525060200191505060405180910390fd5b6007600087815260200190815260200160002060000160009054906101000a900473ffffffffffffffffffffffffffffffffffffffff1660076000888152602001908152602001600020600101546007600089815260200190815260200160002060020160009054906101000a900463ffffffff16600760008a815260200190815260200160002060020160059054906101000a900460ff16600760008b8152602001908152602001600020600301549450945094509450945091939590929450565b336108f481611b16565b610966576040517f08c379a000000000000000000000000000000000000000000000000000000000815260040180806020018281038252601e8152602001807f546865207061727469636970616e7420646f65736e277420657869737473000081525060200191505060405180910390fd5b6000600260009054906101000a900473ffffffffffffffffffffffffffffffffffffffff1690508073ffffffffffffffffffffffffffffffffffffffff166369fab0b260016040518263ffffffff1660e01b81526004018080602001828103825283818154600181600116156101000203166002900481526020019150805460018160011615610100020316600290048015610a435780601f10610a1857610100808354040283529160200191610a43565b820191906000526020600020905b815481529060010190602001808311610a2657829003601f168201915b50509250505060206040518083038186803b158015610a6157600080fd5b505afa158015610a75573d6000803e3d6000fd5b505050506040513d6020811015610a8b57600080fd5b8101908080519060200190929190505050610af1576040517f08c379a00000000000000000000000000000000000000000000000000000000081526004018080602001828103825260218152602001806154066021913960400191505060405180910390fd5b8073ffffffffffffffffffffffffffffffffffffffff1663ecc0a60160016040518263ffffffff1660e01b81526004018080602001828103825283818154600181600116156101000203166002900481526020019150805460018160011615610100020316600290048015610ba75780601f10610b7c57610100808354040283529160200191610ba7565b820191906000526020600020905b815481529060010190602001808311610b8a57829003601f168201915b50509250505060206040518083038186803b158015610bc557600080fd5b505afa158015610bd9573d6000803e3d6000fd5b505050506040513d6020811015610bef57600080fd5b8101908080519060200190929190505050610c72576040517f08c379a00000000000000000000000000000000000000000000000000000000081526004018080602001828103825260148152602001807f526f6e6461206973206e6f74206163746976652100000000000000000000000081525060200191505060405180910390fd5b6001600454016004819055503360076000600454815260200190815260200160002060000160006101000a81548173ffffffffffffffffffffffffffffffffffffffff021916908373ffffffffffffffffffffffffffffffffffffffff16021790555043600760006004548152602001908152602001600020600101819055508260076000600454815260200190815260200160002060020160006101000a81548163ffffffff021916908363ffffffff160217905550600160076000600454815260200190815260200160002060020160046101000a81548160ff021916908315150217905550600060076000600454815260200190815260200160002060020160056101000a81548160ff0219169083151502179055506000600760006004548152602001908152602001600020600301819055503373ffffffffffffffffffffffffffffffffffffffff166000809054906101000a900473ffffffffffffffffffffffffffffffffffffffff1673ffffffffffffffffffffffffffffffffffffffff167f28b4b400f593623cb878d6b56e35a4216aacb8408e7a73b0d3425852ae08d2578543604051808363ffffffff1663ffffffff1681526020018281526020019250505060405180910390a3505050565b610e506133eb565b610ec2576040517f08c379a000000000000000000000000000000000000000000000000000000000815260040180806020018281038252600d8152602001807f4973206e6f742061646d696e210000000000000000000000000000000000000081525060200191505060405180910390fd5b80610ecc81611b16565b610f3e576040517f08c379a000000000000000000000000000000000000000000000000000000000815260040180806020018281038252601e8152602001807f546865207061727469636970616e7420646f65736e277420657869737473000081525060200191505060405180910390fd5b610f4781613f2d565b610f9c576040517f08c379a00000000000000000000000000000000000000000000000000000000081526004018080602001828103825260258152602001806153e16025913960400191505060405180910390fd5b6000600260009054906101000a900473ffffffffffffffffffffffffffffffffffffffff1690508073ffffffffffffffffffffffffffffffffffffffff166369fab0b260016040518263ffffffff1660e01b815260040180806020018281038252838181546001816001161561010002031660029004815260200191508054600181600116156101000203166002900480156110795780601f1061104e57610100808354040283529160200191611079565b820191906000526020600020905b81548152906001019060200180831161105c57829003601f168201915b50509250505060206040518083038186803b15801561109757600080fd5b505afa1580156110ab573d6000803e3d6000fd5b505050506040513d60208110156110c157600080fd5b8101908080519060200190929190505050611127576040517f08c379a00000000000000000000000000000000000000000000000000000000081526004018080602001828103825260218152602001806154066021913960400191505060405180910390fd5b8073ffffffffffffffffffffffffffffffffffffffff1663ecc0a60160016040518263ffffffff1660e01b815260040180806020018281038252838181546001816001161561010002031660029004815260200191508054600181600116156101000203166002900480156111dd5780601f106111b2576101008083540402835291602001916111dd565b820191906000526020600020905b8154815290600101906020018083116111c057829003601f168201915b50509250505060206040518083038186803b1580156111fb57600080fd5b505afa15801561120f573d6000803e3d6000fd5b505050506040513d602081101561122557600080fd5b81019080805190602001909291905050506112a8576040517f08c379a00000000000000000000000000000000000000000000000000000000081526004018080602001828103825260148152602001807f526f6e6461206973206e6f74206163746976652100000000000000000000000081525060200191505060405180910390fd5b6002600660008573ffffffffffffffffffffffffffffffffffffffff1673ffffffffffffffffffffffffffffffffffffffff16815260200190815260200160002060020160006101000a81548160ff0219169083600281111561130757fe5b021790555043600660008573ffffffffffffffffffffffffffffffffffffffff1673ffffffffffffffffffffffffffffffffffffffff1681526020019081526020016000206001018190555033600660008573ffffffffffffffffffffffffffffffffffffffff1673ffffffffffffffffffffffffffffffffffffffff16815260200190815260200160002060020160016101000a81548173ffffffffffffffffffffffffffffffffffffffff021916908373ffffffffffffffffffffffffffffffffffffffff1602179055508273ffffffffffffffffffffffffffffffffffffffff166000809054906101000a900473ffffffffffffffffffffffffffffffffffffffff1673ffffffffffffffffffffffffffffffffffffffff167fca136aa13d73d22f4eabce5ac7ebb29ab7887ab7443b427fbdc8e087b34faa07436040518082815260200191505060405180910390a3505050565b6114676133eb565b6114d9576040517f08c379a000000000000000000000000000000000000000000000000000000000815260040180806020018281038252600d8152602001807f4973206e6f742061646d696e210000000000000000000000000000000000000081525060200191505060405180910390fd5b6000600260009054906101000a900473ffffffffffffffffffffffffffffffffffffffff1690508073ffffffffffffffffffffffffffffffffffffffff166369fab0b260016040518263ffffffff1660e01b815260040180806020018281038252838181546001816001161561010002031660029004815260200191508054600181600116156101000203166002900480156115b65780601f1061158b576101008083540402835291602001916115b6565b820191906000526020600020905b81548152906001019060200180831161159957829003601f168201915b50509250505060206040518083038186803b1580156115d457600080fd5b505afa1580156115e8573d6000803e3d6000fd5b505050506040513d60208110156115fe57600080fd5b8101908080519060200190929190505050611664576040517f08c379a00000000000000000000000000000000000000000000000000000000081526004018080602001828103825260218152602001806154066021913960400191505060405180910390fd5b8073ffffffffffffffffffffffffffffffffffffffff1663ecc0a60160016040518263ffffffff1660e01b8152600401808060200182810382528381815460018160011615610100020316600290048152602001915080546001816001161561010002031660029004801561171a5780601f106116ef5761010080835404028352916020019161171a565b820191906000526020600020905b8154815290600101906020018083116116fd57829003601f168201915b50509250505060206040518083038186803b15801561173857600080fd5b505afa15801561174c573d6000803e3d6000fd5b505050506040513d602081101561176257600080fd5b81019080805190602001909291905050506117e5576040517f08c379a00000000000000000000000000000000000000000000000000000000081526004018080602001828103825260148152602001807f526f6e6461206973206e6f74206163746976652100000000000000000000000081525060200191505060405180910390fd5b60008090505b838390508160ff161015611a72576006600085858460ff1681811061180c57fe5b9050602002013573ffffffffffffffffffffffffffffffffffffffff1673ffffffffffffffffffffffffffffffffffffffff1673ffffffffffffffffffffffffffffffffffffffff16815260200190815260200160002060020160159054906101000a900460ff16611a655783838260ff1681811061188757fe5b9050602002013573ffffffffffffffffffffffffffffffffffffffff166006600086868560ff168181106118b757fe5b9050602002013573ffffffffffffffffffffffffffffffffffffffff1673ffffffffffffffffffffffffffffffffffffffff1673ffffffffffffffffffffffffffffffffffffffff16815260200190815260200160002060000160006101000a81548173ffffffffffffffffffffffffffffffffffffffff021916908373ffffffffffffffffffffffffffffffffffffffff16021790555060006006600086868560ff1681811061196457fe5b9050602002013573ffffffffffffffffffffffffffffffffffffffff1673ffffffffffffffffffffffffffffffffffffffff1673ffffffffffffffffffffffffffffffffffffffff16815260200190815260200160002060020160006101000a81548160ff021916908360028111156119d957fe5b021790555060016006600086868560ff168181106119f357fe5b9050602002013573ffffffffffffffffffffffffffffffffffffffff1673ffffffffffffffffffffffffffffffffffffffff1673ffffffffffffffffffffffffffffffffffffffff16815260200190815260200160002060020160156101000a81548160ff0219169083151502179055505b80806001019150506117eb565b506000809054906101000a900473ffffffffffffffffffffffffffffffffffffffff1673ffffffffffffffffffffffffffffffffffffffff167f310466bacec0368233ea1509c806bce4f177ed6e90f717dbc706dd277988f52c848460405180806020018281038252848482818152602001925060200280828437600081840152601f19601f820116905080830192505050935050505060405180910390a2505050565b6000600660008373ffffffffffffffffffffffffffffffffffffffff1673ffffffffffffffffffffffffffffffffffffffff16815260200190815260200160002060020160159054906101000a900460ff169050919050565b6000611b796133eb565b611beb576040517f08c379a000000000000000000000000000000000000000000000000000000000815260040180806020018281038252600d8152602001807f4973206e6f742061646d696e210000000000000000000000000000000000000081525060200191505060405180910390fd5b600454905090565b6000806000806000611c036133eb565b611c75576040517f08c379a000000000000000000000000000000000000000000000000000000000815260040180806020018281038252600d8152602001807f4973206e6f742061646d696e210000000000000000000000000000000000000081525060200191505060405180910390fd5b600660008773ffffffffffffffffffffffffffffffffffffffff1673ffffffffffffffffffffffffffffffffffffffff16815260200190815260200160002060000160009054906101000a900473ffffffffffffffffffffffffffffffffffffffff16600660008873ffffffffffffffffffffffffffffffffffffffff1673ffffffffffffffffffffffffffffffffffffffff16815260200190815260200160002060010154600660008973ffffffffffffffffffffffffffffffffffffffff1673ffffffffffffffffffffffffffffffffffffffff16815260200190815260200160002060020160009054906101000a900460ff16600660008a73ffffffffffffffffffffffffffffffffffffffff1673ffffffffffffffffffffffffffffffffffffffff16815260200190815260200160002060020160019054906101000a900473ffffffffffffffffffffffffffffffffffffffff16600660008b73ffffffffffffffffffffffffffffffffffffffff1673ffffffffffffffffffffffffffffffffffffffff16815260200190815260200160002060020160159054906101000a900460ff169450945094509450945091939590929450565b611e396133eb565b611eab576040517f08c379a000000000000000000000000000000000000000000000000000000000815260040180806020018281038252600d8152602001807f4973206e6f742061646d696e210000000000000000000000000000000000000081525060200191505060405180910390fd5b80611eb581611b16565b611f27576040517f08c379a000000000000000000000000000000000000000000000000000000000815260040180806020018281038252601e8152602001807f546865207061727469636970616e7420646f65736e277420657869737473000081525060200191505060405180910390fd5b611f3081613f2d565b611f85576040517f08c379a00000000000000000000000000000000000000000000000000000000081526004018080602001828103825260258152602001806153e16025913960400191505060405180910390fd5b6000600260009054906101000a900473ffffffffffffffffffffffffffffffffffffffff1690508073ffffffffffffffffffffffffffffffffffffffff166369fab0b260016040518263ffffffff1660e01b815260040180806020018281038252838181546001816001161561010002031660029004815260200191508054600181600116156101000203166002900480156120625780601f1061203757610100808354040283529160200191612062565b820191906000526020600020905b81548152906001019060200180831161204557829003601f168201915b50509250505060206040518083038186803b15801561208057600080fd5b505afa158015612094573d6000803e3d6000fd5b505050506040513d60208110156120aa57600080fd5b8101908080519060200190929190505050612110576040517f08c379a00000000000000000000000000000000000000000000000000000000081526004018080602001828103825260218152602001806154066021913960400191505060405180910390fd5b8073ffffffffffffffffffffffffffffffffffffffff1663ecc0a60160016040518263ffffffff1660e01b815260040180806020018281038252838181546001816001161561010002031660029004815260200191508054600181600116156101000203166002900480156121c65780601f1061219b576101008083540402835291602001916121c6565b820191906000526020600020905b8154815290600101906020018083116121a957829003601f168201915b50509250505060206040518083038186803b1580156121e457600080fd5b505afa1580156121f8573d6000803e3d6000fd5b505050506040513d602081101561220e57600080fd5b8101908080519060200190929190505050612291576040517f08c379a00000000000000000000000000000000000000000000000000000000081526004018080602001828103825260148152602001807f526f6e6461206973206e6f74206163746976652100000000000000000000000081525060200191505060405180910390fd5b6001600660008573ffffffffffffffffffffffffffffffffffffffff1673ffffffffffffffffffffffffffffffffffffffff16815260200190815260200160002060020160006101000a81548160ff021916908360028111156122f057fe5b021790555043600660008573ffffffffffffffffffffffffffffffffffffffff1673ffffffffffffffffffffffffffffffffffffffff1681526020019081526020016000206001018190555033600660008573ffffffffffffffffffffffffffffffffffffffff1673ffffffffffffffffffffffffffffffffffffffff16815260200190815260200160002060020160016101000a81548173ffffffffffffffffffffffffffffffffffffffff021916908373ffffffffffffffffffffffffffffffffffffffff1602179055508273ffffffffffffffffffffffffffffffffffffffff166000809054906101000a900473ffffffffffffffffffffffffffffffffffffffff1673ffffffffffffffffffffffffffffffffffffffff167fc4ee96700fd4aec0fc65c2e1638e56be841bedf93a9dab5fefb3c11fdbd05586436040518082815260200191505060405180910390a3505050565b3361245281611b16565b6124c4576040517f08c379a000000000000000000000000000000000000000000000000000000000815260040180806020018281038252601e8152602001807f546865207061727469636970616e7420646f65736e277420657869737473000081525060200191505060405180910390fd5b6000600260009054906101000a900473ffffffffffffffffffffffffffffffffffffffff1690508073ffffffffffffffffffffffffffffffffffffffff166369fab0b260016040518263ffffffff1660e01b815260040180806020018281038252838181546001816001161561010002031660029004815260200191508054600181600116156101000203166002900480156125a15780601f10612576576101008083540402835291602001916125a1565b820191906000526020600020905b81548152906001019060200180831161258457829003601f168201915b50509250505060206040518083038186803b1580156125bf57600080fd5b505afa1580156125d3573d6000803e3d6000fd5b505050506040513d60208110156125e957600080fd5b810190808051906020019092919050505061264f576040517f08c379a00000000000000000000000000000000000000000000000000000000081526004018080602001828103825260218152602001806154066021913960400191505060405180910390fd5b8073ffffffffffffffffffffffffffffffffffffffff1663ecc0a60160016040518263ffffffff1660e01b815260040180806020018281038252838181546001816001161561010002031660029004815260200191508054600181600116156101000203166002900480156127055780601f106126da57610100808354040283529160200191612705565b820191906000526020600020905b8154815290600101906020018083116126e857829003601f168201915b50509250505060206040518083038186803b15801561272357600080fd5b505afa158015612737573d6000803e3d6000fd5b505050506040513d602081101561274d57600080fd5b81019080805190602001909291905050506127d0576040517f08c379a00000000000000000000000000000000000000000000000000000000081526004018080602001828103825260148152602001807f526f6e6461206973206e6f74206163746976652100000000000000000000000081525060200191505060405180910390fd5b6001600554016005819055503360086000600554815260200190815260200160002060000160006101000a81548173ffffffffffffffffffffffffffffffffffffffff021916908373ffffffffffffffffffffffffffffffffffffffff16021790555043600860006005548152602001908152602001600020600201819055503360086000600554815260200190815260200160002060010160006101000a81548173ffffffffffffffffffffffffffffffffffffffff021916908373ffffffffffffffffffffffffffffffffffffffff1602179055508260086000600554815260200190815260200160002060030160006101000a81548163ffffffff021916908363ffffffff160217905550600160086000600554815260200190815260200160002060030160046101000a81548160ff0219169083151502179055503373ffffffffffffffffffffffffffffffffffffffff163373ffffffffffffffffffffffffffffffffffffffff167f3110aa6906578f62c4b1b613e353a69459fbfe274869f2b3de6538b49db423658543604051808363ffffffff1663ffffffff1681526020018281526020019250505060405180910390a3505050565b6129956133eb565b612a07576040517f08c379a000000000000000000000000000000000000000000000000000000000815260040180806020018281038252600d8152602001807f4973206e6f742061646d696e210000000000000000000000000000000000000081525060200191505060405180910390fd5b6000600260009054906101000a900473ffffffffffffffffffffffffffffffffffffffff1690508073ffffffffffffffffffffffffffffffffffffffff166369fab0b260016040518263ffffffff1660e01b81526004018080602001828103825283818154600181600116156101000203166002900481526020019150805460018160011615610100020316600290048015612ae45780601f10612ab957610100808354040283529160200191612ae4565b820191906000526020600020905b815481529060010190602001808311612ac757829003601f168201915b50509250505060206040518083038186803b158015612b0257600080fd5b505afa158015612b16573d6000803e3d6000fd5b505050506040513d6020811015612b2c57600080fd5b8101908080519060200190929190505050612b92576040517f08c379a00000000000000000000000000000000000000000000000000000000081526004018080602001828103825260218152602001806154066021913960400191505060405180910390fd5b8073ffffffffffffffffffffffffffffffffffffffff1663ecc0a60160016040518263ffffffff1660e01b81526004018080602001828103825283818154600181600116156101000203166002900481526020019150805460018160011615610100020316600290048015612c485780601f10612c1d57610100808354040283529160200191612c48565b820191906000526020600020905b815481529060010190602001808311612c2b57829003601f168201915b50509250505060206040518083038186803b158015612c6657600080fd5b505afa158015612c7a573d6000803e3d6000fd5b505050506040513d6020811015612c9057600080fd5b8101908080519060200190929190505050612d13576040517f08c379a00000000000000000000000000000000000000000000000000000000081526004018080602001828103825260148152602001807f526f6e6461206973206e6f74206163746976652100000000000000000000000081525060200191505060405180910390fd5b60008060009054906101000a900473ffffffffffffffffffffffffffffffffffffffff169050826000806101000a81548173ffffffffffffffffffffffffffffffffffffffff021916908373ffffffffffffffffffffffffffffffffffffffff1602179055508273ffffffffffffffffffffffffffffffffffffffff168173ffffffffffffffffffffffffffffffffffffffff167f7e644d79422f17c01e4894b5f4f588d331ebfa28653d42ae832dc59e38c9798f60405160405180910390a3505050565b6000612de26133eb565b612e54576040517f08c379a000000000000000000000000000000000000000000000000000000000815260040180806020018281038252600d8152602001807f4973206e6f742061646d696e210000000000000000000000000000000000000081525060200191505060405180910390fd5b600554905090565b612e6533611b16565b612ed7576040517f08c379a000000000000000000000000000000000000000000000000000000000815260040180806020018281038252601e8152602001807f546865207061727469636970616e7420646f65736e277420657869737473000081525060200191505060405180910390fd5b612ee033613f2d565b612f35576040517f08c379a00000000000000000000000000000000000000000000000000000000081526004018080602001828103825260258152602001806153e16025913960400191505060405180910390fd5b6000600260009054906101000a900473ffffffffffffffffffffffffffffffffffffffff1690508073ffffffffffffffffffffffffffffffffffffffff166369fab0b260016040518263ffffffff1660e01b815260040180806020018281038252838181546001816001161561010002031660029004815260200191508054600181600116156101000203166002900480156130125780601f10612fe757610100808354040283529160200191613012565b820191906000526020600020905b815481529060010190602001808311612ff557829003601f168201915b50509250505060206040518083038186803b15801561303057600080fd5b505afa158015613044573d6000803e3d6000fd5b505050506040513d602081101561305a57600080fd5b81019080805190602001909291905050506130c0576040517f08c379a00000000000000000000000000000000000000000000000000000000081526004018080602001828103825260218152602001806154066021913960400191505060405180910390fd5b8073ffffffffffffffffffffffffffffffffffffffff1663ecc0a60160016040518263ffffffff1660e01b815260040180806020018281038252838181546001816001161561010002031660029004815260200191508054600181600116156101000203166002900480156131765780601f1061314b57610100808354040283529160200191613176565b820191906000526020600020905b81548152906001019060200180831161315957829003601f168201915b50509250505060206040518083038186803b15801561319457600080fd5b505afa1580156131a8573d6000803e3d6000fd5b505050506040513d60208110156131be57600080fd5b8101908080519060200190929190505050613241576040517f08c379a00000000000000000000000000000000000000000000000000000000081526004018080602001828103825260148152602001807f526f6e6461206973206e6f74206163746976652100000000000000000000000081525060200191505060405180910390fd5b6001600660003373ffffffffffffffffffffffffffffffffffffffff1673ffffffffffffffffffffffffffffffffffffffff16815260200190815260200160002060020160006101000a81548160ff021916908360028111156132a057fe5b021790555043600660003373ffffffffffffffffffffffffffffffffffffffff1673ffffffffffffffffffffffffffffffffffffffff1681526020019081526020016000206001018190555033600660003373ffffffffffffffffffffffffffffffffffffffff1673ffffffffffffffffffffffffffffffffffffffff16815260200190815260200160002060020160016101000a81548173ffffffffffffffffffffffffffffffffffffffff021916908373ffffffffffffffffffffffffffffffffffffffff1602179055503373ffffffffffffffffffffffffffffffffffffffff166000809054906101000a900473ffffffffffffffffffffffffffffffffffffffff1673ffffffffffffffffffffffffffffffffffffffff167f0aea5d769154911aca17029a430e1b8b72baecbff04fcb4c923c203bc716766360405160405180910390a350565b60008060009054906101000a900473ffffffffffffffffffffffffffffffffffffffff1673ffffffffffffffffffffffffffffffffffffffff163373ffffffffffffffffffffffffffffffffffffffff1614905090565b6000806000806134506133eb565b6134c2576040517f08c379a000000000000000000000000000000000000000000000000000000000815260040180806020018281038252600d8152602001807f4973206e6f742061646d696e210000000000000000000000000000000000000081525060200191505060405180910390fd5b6008600086815260200190815260200160002060030160049054906101000a900460ff16613558576040517f08c379a00000000000000000000000000000000000000000000000000000000081526004018080602001828103825260188152602001807f5468652063686172676520646f65736e2774206578697374000000000000000081525060200191505060405180910390fd5b6008600086815260200190815260200160002060000160009054906101000a900473ffffffffffffffffffffffffffffffffffffffff166008600087815260200190815260200160002060010160009054906101000a900473ffffffffffffffffffffffffffffffffffffffff1660086000888152602001908152602001600020600201546008600089815260200190815260200160002060030160009054906101000a900463ffffffff168063ffffffff16905093509350935093509193509193565b6136246133eb565b613696576040517f08c379a000000000000000000000000000000000000000000000000000000000815260040180806020018281038252600d8152602001807f4973206e6f742061646d696e210000000000000000000000000000000000000081525060200191505060405180910390fd5b6000600260009054906101000a900473ffffffffffffffffffffffffffffffffffffffff1690508073ffffffffffffffffffffffffffffffffffffffff166369fab0b260016040518263ffffffff1660e01b815260040180806020018281038252838181546001816001161561010002031660029004815260200191508054600181600116156101000203166002900480156137735780601f1061374857610100808354040283529160200191613773565b820191906000526020600020905b81548152906001019060200180831161375657829003601f168201915b50509250505060206040518083038186803b15801561379157600080fd5b505afa1580156137a5573d6000803e3d6000fd5b505050506040513d60208110156137bb57600080fd5b8101908080519060200190929190505050613821576040517f08c379a00000000000000000000000000000000000000000000000000000000081526004018080602001828103825260218152602001806154066021913960400191505060405180910390fd5b8073ffffffffffffffffffffffffffffffffffffffff1663ecc0a60160016040518263ffffffff1660e01b815260040180806020018281038252838181546001816001161561010002031660029004815260200191508054600181600116156101000203166002900480156138d75780601f106138ac576101008083540402835291602001916138d7565b820191906000526020600020905b8154815290600101906020018083116138ba57829003601f168201915b50509250505060206040518083038186803b1580156138f557600080fd5b505afa158015613909573d6000803e3d6000fd5b505050506040513d602081101561391f57600080fd5b81019080805190602001909291905050506139a2576040517f08c379a00000000000000000000000000000000000000000000000000000000081526004018080602001828103825260148152602001807f526f6e6461206973206e6f74206163746976652100000000000000000000000081525060200191505060405180910390fd5b6007600083815260200190815260200160002060020160049054906101000a900460ff16613a38576040517f08c379a00000000000000000000000000000000000000000000000000000000081526004018080602001828103825260198152602001807f546865207061796d656e7420646f65736e27742065786973740000000000000081525060200191505060405180910390fd5b60016007600084815260200190815260200160002060020160056101000a81548160ff02191690831515021790555043600760008481526020019081526020016000206003018190555043827f9a9ea652d15024824e64af0e7414c616eba80bfbedc749d922030a50392fa62860405160405180910390a35050565b613abc6133eb565b613b2e576040517f08c379a000000000000000000000000000000000000000000000000000000000815260040180806020018281038252600d8152602001807f4973206e6f742061646d696e210000000000000000000000000000000000000081525060200191505060405180910390fd5b6000600260009054906101000a900473ffffffffffffffffffffffffffffffffffffffff1690508073ffffffffffffffffffffffffffffffffffffffff166369fab0b260016040518263ffffffff1660e01b81526004018080602001828103825283818154600181600116156101000203166002900481526020019150805460018160011615610100020316600290048015613c0b5780601f10613be057610100808354040283529160200191613c0b565b820191906000526020600020905b815481529060010190602001808311613bee57829003601f168201915b50509250505060206040518083038186803b158015613c2957600080fd5b505afa158015613c3d573d6000803e3d6000fd5b505050506040513d6020811015613c5357600080fd5b8101908080519060200190929190505050613cb9576040517f08c379a00000000000000000000000000000000000000000000000000000000081526004018080602001828103825260218152602001806154066021913960400191505060405180910390fd5b8073ffffffffffffffffffffffffffffffffffffffff1663ecc0a60160016040518263ffffffff1660e01b81526004018080602001828103825283818154600181600116156101000203166002900481526020019150805460018160011615610100020316600290048015613d6f5780601f10613d4457610100808354040283529160200191613d6f565b820191906000526020600020905b815481529060010190602001808311613d5257829003601f168201915b50509250505060206040518083038186803b158015613d8d57600080fd5b505afa158015613da1573d6000803e3d6000fd5b505050506040513d6020811015613db757600080fd5b8101908080519060200190929190505050613e3a576040517f08c379a00000000000000000000000000000000000000000000000000000000081526004018080602001828103825260148152602001807f526f6e6461206973206e6f74206163746976652100000000000000000000000081525060200191505060405180910390fd5b600060035414613eb2576040517f08c379a000000000000000000000000000000000000000000000000000000000815260040180806020018281038252601c8152602001807f54686520726f6e646120697320616c726561647920737461727465640000000081525060200191505060405180910390fd5b436003819055506000809054906101000a900473ffffffffffffffffffffffffffffffffffffffff1673ffffffffffffffffffffffffffffffffffffffff167fd263e6467e44cfcc9e7c2e003ef63f1a25d2f827831b1d76385e26d26b961b416003546040518082815260200191505060405180910390a250565b6000806002811115613f3b57fe5b600660008473ffffffffffffffffffffffffffffffffffffffff1673ffffffffffffffffffffffffffffffffffffffff16815260200190815260200160002060020160009054906101000a900460ff166002811115613f9657fe5b149050919050565b613fa733611b16565b614019576040517f08c379a000000000000000000000000000000000000000000000000000000000815260040180806020018281038252601e8152602001807f546865207061727469636970616e7420646f65736e277420657869737473000081525060200191505060405180910390fd5b61402233613f2d565b614077576040517f08c379a00000000000000000000000000000000000000000000000000000000081526004018080602001828103825260258152602001806153e16025913960400191505060405180910390fd5b6000600260009054906101000a900473ffffffffffffffffffffffffffffffffffffffff1690508073ffffffffffffffffffffffffffffffffffffffff166369fab0b260016040518263ffffffff1660e01b815260040180806020018281038252838181546001816001161561010002031660029004815260200191508054600181600116156101000203166002900480156141545780601f1061412957610100808354040283529160200191614154565b820191906000526020600020905b81548152906001019060200180831161413757829003601f168201915b50509250505060206040518083038186803b15801561417257600080fd5b505afa158015614186573d6000803e3d6000fd5b505050506040513d602081101561419c57600080fd5b8101908080519060200190929190505050614202576040517f08c379a00000000000000000000000000000000000000000000000000000000081526004018080602001828103825260218152602001806154066021913960400191505060405180910390fd5b8073ffffffffffffffffffffffffffffffffffffffff1663ecc0a60160016040518263ffffffff1660e01b815260040180806020018281038252838181546001816001161561010002031660029004815260200191508054600181600116156101000203166002900480156142b85780601f1061428d576101008083540402835291602001916142b8565b820191906000526020600020905b81548152906001019060200180831161429b57829003601f168201915b50509250505060206040518083038186803b1580156142d657600080fd5b505afa1580156142ea573d6000803e3d6000fd5b505050506040513d602081101561430057600080fd5b8101908080519060200190929190505050614383576040517f08c379a00000000000000000000000000000000000000000000000000000000081526004018080602001828103825260148152602001807f526f6e6461206973206e6f74206163746976652100000000000000000000000081525060200191505060405180910390fd5b6002600660003373ffffffffffffffffffffffffffffffffffffffff1673ffffffffffffffffffffffffffffffffffffffff16815260200190815260200160002060020160006101000a81548160ff021916908360028111156143e257fe5b021790555043600660003373ffffffffffffffffffffffffffffffffffffffff1673ffffffffffffffffffffffffffffffffffffffff1681526020019081526020016000206001018190555033600660003373ffffffffffffffffffffffffffffffffffffffff1673ffffffffffffffffffffffffffffffffffffffff16815260200190815260200160002060020160016101000a81548173ffffffffffffffffffffffffffffffffffffffff021916908373ffffffffffffffffffffffffffffffffffffffff1602179055503373ffffffffffffffffffffffffffffffffffffffff166000809054906101000a900473ffffffffffffffffffffffffffffffffffffffff1673ffffffffffffffffffffffffffffffffffffffff167f6303c5af37b7783f8ee553692a61d574ef06252e1021dcdf04debe6b9e1efca260405160405180910390a350565b6145356133eb565b6145a7576040517f08c379a000000000000000000000000000000000000000000000000000000000815260040180806020018281038252600d8152602001807f4973206e6f742061646d696e210000000000000000000000000000000000000081525060200191505060405180910390fd5b6000600260009054906101000a900473ffffffffffffffffffffffffffffffffffffffff1690508073ffffffffffffffffffffffffffffffffffffffff166369fab0b260016040518263ffffffff1660e01b815260040180806020018281038252838181546001816001161561010002031660029004815260200191508054600181600116156101000203166002900480156146845780601f1061465957610100808354040283529160200191614684565b820191906000526020600020905b81548152906001019060200180831161466757829003601f168201915b50509250505060206040518083038186803b1580156146a257600080fd5b505afa1580156146b6573d6000803e3d6000fd5b505050506040513d60208110156146cc57600080fd5b8101908080519060200190929190505050614732576040517f08c379a00000000000000000000000000000000000000000000000000000000081526004018080602001828103825260218152602001806154066021913960400191505060405180910390fd5b8073ffffffffffffffffffffffffffffffffffffffff1663ecc0a60160016040518263ffffffff1660e01b815260040180806020018281038252838181546001816001161561010002031660029004815260200191508054600181600116156101000203166002900480156147e85780601f106147bd576101008083540402835291602001916147e8565b820191906000526020600020905b8154815290600101906020018083116147cb57829003601f168201915b50509250505060206040518083038186803b15801561480657600080fd5b505afa15801561481a573d6000803e3d6000fd5b505050506040513d602081101561483057600080fd5b81019080805190602001909291905050506148b3576040517f08c379a00000000000000000000000000000000000000000000000000000000081526004018080602001828103825260148152602001807f526f6e6461206973206e6f74206163746976652100000000000000000000000081525060200191505060405180910390fd5b600660008373ffffffffffffffffffffffffffffffffffffffff1673ffffffffffffffffffffffffffffffffffffffff16815260200190815260200160002060020160159054906101000a900460ff1615614959576040517f08c379a000000000000000000000000000000000000000000000000000000000815260040180806020018281038252602f815260200180615427602f913960400191505060405180910390fd5b81600660008473ffffffffffffffffffffffffffffffffffffffff1673ffffffffffffffffffffffffffffffffffffffff16815260200190815260200160002060000160006101000a81548173ffffffffffffffffffffffffffffffffffffffff021916908373ffffffffffffffffffffffffffffffffffffffff1602179055506000600660008473ffffffffffffffffffffffffffffffffffffffff1673ffffffffffffffffffffffffffffffffffffffff16815260200190815260200160002060020160006101000a81548160ff02191690836002811115614a3957fe5b02179055506001600660008473ffffffffffffffffffffffffffffffffffffffff1673ffffffffffffffffffffffffffffffffffffffff16815260200190815260200160002060020160156101000a81548160ff0219169083151502179055508173ffffffffffffffffffffffffffffffffffffffff166000809054906101000a900473ffffffffffffffffffffffffffffffffffffffff1673ffffffffffffffffffffffffffffffffffffffff167fd7fc330992ee2ab188d863322a878ee61430cd2a473f46cbf3334b59647572ed60405160405180910390a35050565b614b206133eb565b614b92576040517f08c379a000000000000000000000000000000000000000000000000000000000815260040180806020018281038252600d8152602001807f4973206e6f742061646d696e210000000000000000000000000000000000000081525060200191505060405180910390fd5b81614b9c81611b16565b614c0e576040517f08c379a000000000000000000000000000000000000000000000000000000000815260040180806020018281038252601e8152602001807f546865207061727469636970616e7420646f65736e277420657869737473000081525060200191505060405180910390fd5b81614c1881611b16565b15614c6e576040517f08c379a000000000000000000000000000000000000000000000000000000000815260040180806020018281038252602b8152602001806153b6602b913960400191505060405180910390fd5b6000600260009054906101000a900473ffffffffffffffffffffffffffffffffffffffff1690508073ffffffffffffffffffffffffffffffffffffffff166369fab0b260016040518263ffffffff1660e01b81526004018080602001828103825283818154600181600116156101000203166002900481526020019150805460018160011615610100020316600290048015614d4b5780601f10614d2057610100808354040283529160200191614d4b565b820191906000526020600020905b815481529060010190602001808311614d2e57829003601f168201915b50509250505060206040518083038186803b158015614d6957600080fd5b505afa158015614d7d573d6000803e3d6000fd5b505050506040513d6020811015614d9357600080fd5b8101908080519060200190929190505050614df9576040517f08c379a00000000000000000000000000000000000000000000000000000000081526004018080602001828103825260218152602001806154066021913960400191505060405180910390fd5b8073ffffffffffffffffffffffffffffffffffffffff1663ecc0a60160016040518263ffffffff1660e01b81526004018080602001828103825283818154600181600116156101000203166002900481526020019150805460018160011615610100020316600290048015614eaf5780601f10614e8457610100808354040283529160200191614eaf565b820191906000526020600020905b815481529060010190602001808311614e9257829003601f168201915b50509250505060206040518083038186803b158015614ecd57600080fd5b505afa158015614ee1573d6000803e3d6000fd5b505050506040513d6020811015614ef757600080fd5b8101908080519060200190929190505050614f7a576040517f08c379a00000000000000000000000000000000000000000000000000000000081526004018080602001828103825260148152602001807f526f6e6461206973206e6f74206163746976652100000000000000000000000081525060200191505060405180910390fd5b83600660008673ffffffffffffffffffffffffffffffffffffffff1673ffffffffffffffffffffffffffffffffffffffff16815260200190815260200160002060000160006101000a81548173ffffffffffffffffffffffffffffffffffffffff021916908373ffffffffffffffffffffffffffffffffffffffff1602179055506000600660008673ffffffffffffffffffffffffffffffffffffffff1673ffffffffffffffffffffffffffffffffffffffff1681526020019081526020016000206001018190555060006003541415615139576000600660008673ffffffffffffffffffffffffffffffffffffffff1673ffffffffffffffffffffffffffffffffffffffff16815260200190815260200160002060020160006101000a81548160ff021916908360028111156150ad57fe5b02179055506000600660008673ffffffffffffffffffffffffffffffffffffffff1673ffffffffffffffffffffffffffffffffffffffff16815260200190815260200160002060020160016101000a81548173ffffffffffffffffffffffffffffffffffffffff021916908373ffffffffffffffffffffffffffffffffffffffff160217905550615266565b6001600660008673ffffffffffffffffffffffffffffffffffffffff1673ffffffffffffffffffffffffffffffffffffffff16815260200190815260200160002060020160006101000a81548160ff0219169083600281111561519857fe5b021790555033600660008673ffffffffffffffffffffffffffffffffffffffff1673ffffffffffffffffffffffffffffffffffffffff16815260200190815260200160002060020160016101000a81548173ffffffffffffffffffffffffffffffffffffffff021916908373ffffffffffffffffffffffffffffffffffffffff16021790555043600660008673ffffffffffffffffffffffffffffffffffffffff1673ffffffffffffffffffffffffffffffffffffffff168152602001908152602001600020600101819055505b6000600660008773ffffffffffffffffffffffffffffffffffffffff1673ffffffffffffffffffffffffffffffffffffffff16815260200190815260200160002060020160156101000a81548160ff0219169083151502179055506001600660008673ffffffffffffffffffffffffffffffffffffffff1673ffffffffffffffffffffffffffffffffffffffff16815260200190815260200160002060020160156101000a81548160ff0219169083151502179055508373ffffffffffffffffffffffffffffffffffffffff168573ffffffffffffffffffffffffffffffffffffffff166000809054906101000a900473ffffffffffffffffffffffffffffffffffffffff1673ffffffffffffffffffffffffffffffffffffffff167f2d2e8dc612b8cb1f323b3f9699b46bee371c02e375576b3b366c32299e6b9edc60405160405180910390a4505050505056fe546865207061727469636970616e7420616c72656164792065786973747320696e2074686520526f6e6461546865207061727469636970616e74207374617465206d7573742062652070656e64696e67526f6e646120646f6573206e6f7420657869737420696e20726567697374727921546865207061727469636970616e7420697320616c72656164792070726573656e74206f6e2074686520726f756e64a265627a7a72315820dae1ed37440bd41a9f9068663e1dbae233e7c1ff619fe1d043afaa126ab0fa9f64736f6c634300051000324f776e61626c653a206e6577206f776e657220697320746865207a65726f2061646472657373a265627a7a72315820a804b384b1a398240b8cb3d2a341dd68bc5a24f5e2e0fe77374985c5410ef21e64736f6c63430005100032",
  "source": "pragma solidity >=0.4.21;\n\nimport \"@openzeppelin/contracts/ownership/Ownable.sol\";\nimport \"./Ronda.sol\";\n\ncontract RondasRegistry is Ownable {\n    struct RondaInstance {\n        string id; // Ronda ID\n        address instance; // Address of the Ronda\n        bool active; // If the ronda is active\n        bool exists; // If ronda exists or not for internal use\n        uint256 finishTime; // Block when ronda finished\n    }\n\n    mapping(string => RondaInstance) rondas;\n\n    // Event to trigger when a new ronda is created\n    event NewRonda(address indexed _admin, string _id);\n\n    // Event to trigger when a ronda is finished\n    event FinishedRonda(string indexed _id, uint256 indexed _finishedTime);\n\n\n    /**\n        @notice receives the ronda id and the address of the ronda's admin\n        @dev Only the owner may call this function see {onlyOwner}\n        @param _id string Ronda ID\n        @param _admin address Address from the Ronda\n     */\n    function newRonda(string calldata _id, address _admin) external onlyOwner {\n        require(!rondas[_id].exists, \"Ronda already exists!\");\n\n        // we create the ronda instance\n        Ronda ronda = new Ronda(_admin, address(this) ,_id);\n        // add the contract instance to our rondas collection\n        rondas[_id].id = _id;\n        rondas[_id].instance = address(ronda);\n        rondas[_id].active = true;\n        rondas[_id].exists = true;\n        rondas[_id].finishTime = 0;\n\n        emit NewRonda(_admin, _id);\n    }\n\n    /**\n        @notice Function to get ronda data by id\n        @param _id string Ronda ID\n        @return string Ronda ID\n        @return address address of the Ronda\n        @return bool If the ronda is active or not\n     */\n    function getRondaById(string calldata _id)\n        external\n        view\n        returns (\n            string memory,\n            address,\n            bool,\n            uint256\n        )\n    {\n        return (rondas[_id].id, rondas[_id].instance, rondas[_id].active, rondas[_id].finishTime);\n    }\n\n    /**\n        @notice Function that checks if the ronda id exists\n        @param _id string Ronda ID\n        @return bool \n     */\n    function rondaExists(string calldata _id) external view returns (bool) {\n        return rondas[_id].exists;\n    }\n\n        /**\n        @notice Function that checks if the ronda is active\n        @param _id string Ronda ID\n        @return bool \n     */\n    function rondaIsActive(string calldata _id) external view returns (bool) {\n        return rondas[_id].active;\n    }\n\n    /**\n        @notice Function to end a Round\n        @param _id string Ronda ID\n     */\n    function finishRonda(string calldata _id) external onlyOwner {\n        require(rondas[_id].exists, \"Ronda does not exist!\");\n        rondas[_id].active = false;\n        rondas[_id].finishTime = block.number;\n        emit FinishedRonda(rondas[_id].id, block.number);\n    }\n}\n",
  "sourcePath": "/Users/debrayperalta/Documents/Work/ronda/didirepo/DIDI-Ronda/sc/contracts/RondasRegistry.sol",
  "compiler": {
    "name": "solc",
    "version": "0.5.16+commit.9c3226ce.Emscripten.clang"
  },
  "schemaVersion": "3.3.1",
  "updatedAt": "2021-10-25T17:45:22.973Z",
  "devdoc": {
    "methods": {
      "finishRonda(string)": {
        "params": {
          "_id": "string Ronda ID"
        }
      },
      "getRondaById(string)": {
        "params": {
          "_id": "string Ronda ID"
        },
        "return": "string Ronda IDaddress address of the Rondabool If the ronda is active or not"
      },
      "isOwner()": {
        "details": "Returns true if the caller is the current owner."
      },
      "newRonda(string,address)": {
        "details": "Only the owner may call this function see {onlyOwner}",
        "params": {
          "_admin": "address Address from the Ronda",
          "_id": "string Ronda ID"
        }
      },
      "owner()": {
        "details": "Returns the address of the current owner."
      },
      "renounceOwnership()": {
        "details": "Leaves the contract without owner. It will not be possible to call `onlyOwner` functions anymore. Can only be called by the current owner.     * NOTE: Renouncing ownership will leave the contract without an owner, thereby removing any functionality that is only available to the owner."
      },
      "rondaExists(string)": {
        "params": {
          "_id": "string Ronda ID"
        },
        "return": "bool "
      },
      "rondaIsActive(string)": {
        "params": {
          "_id": "string Ronda ID"
        },
        "return": "bool "
      },
      "transferOwnership(address)": {
        "details": "Transfers ownership of the contract to a new account (`newOwner`). Can only be called by the current owner."
      }
    }
  },
  "userdoc": {
    "methods": {
      "finishRonda(string)": {
        "notice": "Function to end a Round"
      },
      "getRondaById(string)": {
        "notice": "Function to get ronda data by id"
      },
      "newRonda(string,address)": {
        "notice": "receives the ronda id and the address of the ronda's admin"
      },
      "rondaExists(string)": {
        "notice": "Function that checks if the ronda id exists"
      },
      "rondaIsActive(string)": {
        "notice": "Function that checks if the ronda is active"
      }
    }
  }
}